{
	"contracts/SmartContract.sol": {
		"FavNumberStore": {
			"abi": [
				{
					"inputs": [
						{
							"internalType": "string",
							"name": "_name",
							"type": "string"
						},
						{
							"internalType": "uint256",
							"name": "_favNumber",
							"type": "uint256"
						}
					],
					"name": "createUser",
					"outputs": [],
					"stateMutability": "nonpayable",
					"type": "function"
				},
				{
					"inputs": [
						{
							"internalType": "uint256",
							"name": "_id",
							"type": "uint256"
						}
					],
					"name": "deleteUser",
					"outputs": [],
					"stateMutability": "nonpayable",
					"type": "function"
				},
				{
					"inputs": [
						{
							"internalType": "uint256",
							"name": "_userId",
							"type": "uint256"
						}
					],
					"name": "getUser",
					"outputs": [
						{
							"internalType": "uint256",
							"name": "",
							"type": "uint256"
						},
						{
							"internalType": "string",
							"name": "",
							"type": "string"
						},
						{
							"internalType": "uint256",
							"name": "",
							"type": "uint256"
						}
					],
					"stateMutability": "view",
					"type": "function"
				},
				{
					"inputs": [],
					"name": "getUserCount",
					"outputs": [
						{
							"internalType": "uint256",
							"name": "",
							"type": "uint256"
						}
					],
					"stateMutability": "view",
					"type": "function"
				},
				{
					"inputs": [
						{
							"internalType": "uint256",
							"name": "_id",
							"type": "uint256"
						},
						{
							"internalType": "string",
							"name": "_name",
							"type": "string"
						},
						{
							"internalType": "uint256",
							"name": "_favNumber",
							"type": "uint256"
						}
					],
					"name": "updateUser",
					"outputs": [],
					"stateMutability": "nonpayable",
					"type": "function"
				}
			],
			"devdoc": {
				"kind": "dev",
				"methods": {},
				"version": 1
			},
			"evm": {
				"assembly": "    /* \"contracts/SmartContract.sol\":58:1671  contract FavNumberStore {... */\n  mstore(0x40, 0x80)\n    /* \"contracts/SmartContract.sol\":224:225  1 */\n  0x01\n    /* \"contracts/SmartContract.sol\":207:225  uint256 nextId = 1 */\n  dup1\n  sstore\n    /* \"contracts/SmartContract.sol\":58:1671  contract FavNumberStore {... */\n  callvalue\n  dup1\n  iszero\n  tag_1\n  jumpi\n  0x00\n  dup1\n  revert\ntag_1:\n  pop\n  dataSize(sub_0)\n  dup1\n  dataOffset(sub_0)\n  0x00\n  codecopy\n  0x00\n  return\nstop\n\nsub_0: assembly {\n        /* \"contracts/SmartContract.sol\":58:1671  contract FavNumberStore {... */\n      mstore(0x40, 0x80)\n      callvalue\n      dup1\n      iszero\n      tag_1\n      jumpi\n      0x00\n      dup1\n      revert\n    tag_1:\n      pop\n      jumpi(tag_2, lt(calldatasize, 0x04))\n      shr(0xe0, calldataload(0x00))\n      dup1\n      0x121ef243\n      eq\n      tag_3\n      jumpi\n      dup1\n      0x38f14845\n      eq\n      tag_4\n      jumpi\n      dup1\n      0xb0467deb\n      eq\n      tag_5\n      jumpi\n      dup1\n      0xb5cb15f7\n      eq\n      tag_6\n      jumpi\n      dup1\n      0xb7787de9\n      eq\n      tag_7\n      jumpi\n    tag_2:\n      0x00\n      dup1\n      revert\n        /* \"contracts/SmartContract.sol\":265:411  function createUser(string memory _name, uint256 _favNumber) public {... */\n    tag_3:\n      tag_8\n      0x04\n      dup1\n      calldatasize\n      sub\n      dup2\n      add\n      swap1\n      tag_9\n      swap2\n      swap1\n      tag_10\n      jump\t// in\n    tag_9:\n      tag_11\n      jump\t// in\n    tag_8:\n      stop\n        /* \"contracts/SmartContract.sol\":1097:1211  function deleteUser(uint256 _id)public {... */\n    tag_4:\n      tag_12\n      0x04\n      dup1\n      calldatasize\n      sub\n      dup2\n      add\n      swap1\n      tag_13\n      swap2\n      swap1\n      tag_14\n      jump\t// in\n    tag_13:\n      tag_15\n      jump\t// in\n    tag_12:\n      stop\n        /* \"contracts/SmartContract.sol\":466:755  function getUser(uint256 _userId)... */\n    tag_5:\n      tag_16\n      0x04\n      dup1\n      calldatasize\n      sub\n      dup2\n      add\n      swap1\n      tag_17\n      swap2\n      swap1\n      tag_14\n      jump\t// in\n    tag_17:\n      tag_18\n      jump\t// in\n    tag_16:\n      mload(0x40)\n      tag_19\n      swap4\n      swap3\n      swap2\n      swap1\n      tag_20\n      jump\t// in\n    tag_19:\n      mload(0x40)\n      dup1\n      swap2\n      sub\n      swap1\n      return\n        /* \"contracts/SmartContract.sol\":1295:1385  function getUserCount() public view returns (uint256) {... */\n    tag_6:\n      tag_21\n      tag_22\n      jump\t// in\n    tag_21:\n      mload(0x40)\n      tag_23\n      swap2\n      swap1\n      tag_24\n      jump\t// in\n    tag_23:\n      mload(0x40)\n      dup1\n      swap2\n      sub\n      swap1\n      return\n        /* \"contracts/SmartContract.sol\":813:1051  function updateUser(... */\n    tag_7:\n      tag_25\n      0x04\n      dup1\n      calldatasize\n      sub\n      dup2\n      add\n      swap1\n      tag_26\n      swap2\n      swap1\n      tag_27\n      jump\t// in\n    tag_26:\n      tag_28\n      jump\t// in\n    tag_25:\n      stop\n        /* \"contracts/SmartContract.sol\":265:411  function createUser(string memory _name, uint256 _favNumber) public {... */\n    tag_11:\n        /* \"contracts/SmartContract.sol\":343:348  users */\n      0x00\n        /* \"contracts/SmartContract.sol\":354:385  User(nextId, _name, _favNumber) */\n      mload(0x40)\n      dup1\n      0x60\n      add\n      0x40\n      mstore\n      dup1\n        /* \"contracts/SmartContract.sol\":359:365  nextId */\n      sload(0x01)\n        /* \"contracts/SmartContract.sol\":354:385  User(nextId, _name, _favNumber) */\n      dup2\n      mstore\n      0x20\n      add\n        /* \"contracts/SmartContract.sol\":367:372  _name */\n      dup5\n        /* \"contracts/SmartContract.sol\":354:385  User(nextId, _name, _favNumber) */\n      dup2\n      mstore\n      0x20\n      add\n        /* \"contracts/SmartContract.sol\":374:384  _favNumber */\n      dup4\n        /* \"contracts/SmartContract.sol\":354:385  User(nextId, _name, _favNumber) */\n      dup2\n      mstore\n      pop\n        /* \"contracts/SmartContract.sol\":343:386  users.push(User(nextId, _name, _favNumber)) */\n      swap1\n      dup1\n      0x01\n      dup2\n      sload\n      add\n      dup1\n      dup3\n      sstore\n      dup1\n      swap2\n      pop\n      pop\n      0x01\n      swap1\n      sub\n      swap1\n      0x00\n      mstore\n      keccak256(0x00, 0x20)\n      swap1\n      0x03\n      mul\n      add\n      0x00\n      swap1\n      swap2\n      swap1\n      swap2\n      swap1\n      swap2\n      pop\n      0x00\n      dup3\n      add\n      mload\n      dup2\n      0x00\n      add\n      sstore\n      0x20\n      dup3\n      add\n      mload\n      dup2\n      0x01\n      add\n      swap1\n      dup2\n      tag_31\n      swap2\n      swap1\n      tag_32\n      jump\t// in\n    tag_31:\n      pop\n      0x40\n      dup3\n      add\n      mload\n      dup2\n      0x02\n      add\n      sstore\n      pop\n      pop\n        /* \"contracts/SmartContract.sol\":396:402  nextId */\n      0x01\n      0x00\n        /* \"contracts/SmartContract.sol\":396:404  nextId++ */\n      dup2\n      sload\n      dup1\n      swap3\n      swap2\n      swap1\n      tag_33\n      swap1\n      tag_34\n      jump\t// in\n    tag_33:\n      swap2\n      swap1\n      pop\n      sstore\n      pop\n        /* \"contracts/SmartContract.sol\":265:411  function createUser(string memory _name, uint256 _favNumber) public {... */\n      pop\n      pop\n      jump\t// out\n        /* \"contracts/SmartContract.sol\":1097:1211  function deleteUser(uint256 _id)public {... */\n    tag_15:\n        /* \"contracts/SmartContract.sol\":1146:1159  uint256 index */\n      0x00\n        /* \"contracts/SmartContract.sol\":1162:1175  findUser(_id) */\n      tag_36\n        /* \"contracts/SmartContract.sol\":1171:1174  _id */\n      dup3\n        /* \"contracts/SmartContract.sol\":1162:1170  findUser */\n      tag_37\n        /* \"contracts/SmartContract.sol\":1162:1175  findUser(_id) */\n      jump\t// in\n    tag_36:\n        /* \"contracts/SmartContract.sol\":1146:1175  uint256 index = findUser(_id) */\n      swap1\n      pop\n        /* \"contracts/SmartContract.sol\":1192:1197  users */\n      0x00\n        /* \"contracts/SmartContract.sol\":1198:1203  index */\n      dup2\n        /* \"contracts/SmartContract.sol\":1192:1204  users[index] */\n      dup2\n      sload\n      dup2\n      lt\n      tag_38\n      jumpi\n      tag_39\n      tag_40\n      jump\t// in\n    tag_39:\n    tag_38:\n      swap1\n      0x00\n      mstore\n      keccak256(0x00, 0x20)\n      swap1\n      0x03\n      mul\n      add\n      0x00\n        /* \"contracts/SmartContract.sol\":1185:1204  delete users[index] */\n      dup1\n      dup3\n      add\n      0x00\n      swap1\n      sstore\n      0x01\n      dup3\n      add\n      0x00\n      tag_42\n      swap2\n      swap1\n      tag_43\n      jump\t// in\n    tag_42:\n      0x02\n      dup3\n      add\n      0x00\n      swap1\n      sstore\n      pop\n      pop\n        /* \"contracts/SmartContract.sol\":1136:1211  {... */\n      pop\n        /* \"contracts/SmartContract.sol\":1097:1211  function deleteUser(uint256 _id)public {... */\n      pop\n      jump\t// out\n        /* \"contracts/SmartContract.sol\":466:755  function getUser(uint256 _userId)... */\n    tag_18:\n        /* \"contracts/SmartContract.sol\":558:565  uint256 */\n      0x00\n        /* \"contracts/SmartContract.sol\":579:592  string memory */\n      0x60\n        /* \"contracts/SmartContract.sol\":606:613  uint256 */\n      0x00\n        /* \"contracts/SmartContract.sol\":638:651  uint256 index */\n      dup1\n        /* \"contracts/SmartContract.sol\":654:671  findUser(_userId) */\n      tag_45\n        /* \"contracts/SmartContract.sol\":663:670  _userId */\n      dup6\n        /* \"contracts/SmartContract.sol\":654:662  findUser */\n      tag_37\n        /* \"contracts/SmartContract.sol\":654:671  findUser(_userId) */\n      jump\t// in\n    tag_45:\n        /* \"contracts/SmartContract.sol\":638:671  uint256 index = findUser(_userId) */\n      swap1\n      pop\n        /* \"contracts/SmartContract.sol\":689:694  users */\n      0x00\n        /* \"contracts/SmartContract.sol\":695:700  index */\n      dup2\n        /* \"contracts/SmartContract.sol\":689:701  users[index] */\n      dup2\n      sload\n      dup2\n      lt\n      tag_46\n      jumpi\n      tag_47\n      tag_40\n      jump\t// in\n    tag_47:\n    tag_46:\n      swap1\n      0x00\n      mstore\n      keccak256(0x00, 0x20)\n      swap1\n      0x03\n      mul\n      add\n        /* \"contracts/SmartContract.sol\":689:704  users[index].id */\n      0x00\n      add\n      sload\n        /* \"contracts/SmartContract.sol\":706:711  users */\n      0x00\n        /* \"contracts/SmartContract.sol\":712:717  index */\n      dup3\n        /* \"contracts/SmartContract.sol\":706:718  users[index] */\n      dup2\n      sload\n      dup2\n      lt\n      tag_49\n      jumpi\n      tag_50\n      tag_40\n      jump\t// in\n    tag_50:\n    tag_49:\n      swap1\n      0x00\n      mstore\n      keccak256(0x00, 0x20)\n      swap1\n      0x03\n      mul\n      add\n        /* \"contracts/SmartContract.sol\":706:723  users[index].name */\n      0x01\n      add\n        /* \"contracts/SmartContract.sol\":725:730  users */\n      0x00\n        /* \"contracts/SmartContract.sol\":731:736  index */\n      dup4\n        /* \"contracts/SmartContract.sol\":725:737  users[index] */\n      dup2\n      sload\n      dup2\n      lt\n      tag_52\n      jumpi\n      tag_53\n      tag_40\n      jump\t// in\n    tag_53:\n    tag_52:\n      swap1\n      0x00\n      mstore\n      keccak256(0x00, 0x20)\n      swap1\n      0x03\n      mul\n      add\n        /* \"contracts/SmartContract.sol\":725:747  users[index].favNumber */\n      0x02\n      add\n      sload\n        /* \"contracts/SmartContract.sol\":681:748  return (users[index].id, users[index].name, users[index].favNumber) */\n      dup2\n      dup1\n      sload\n      tag_55\n      swap1\n      tag_56\n      jump\t// in\n    tag_55:\n      dup1\n      0x1f\n      add\n      0x20\n      dup1\n      swap2\n      div\n      mul\n      0x20\n      add\n      mload(0x40)\n      swap1\n      dup2\n      add\n      0x40\n      mstore\n      dup1\n      swap3\n      swap2\n      swap1\n      dup2\n      dup2\n      mstore\n      0x20\n      add\n      dup3\n      dup1\n      sload\n      tag_57\n      swap1\n      tag_56\n      jump\t// in\n    tag_57:\n      dup1\n      iszero\n      tag_58\n      jumpi\n      dup1\n      0x1f\n      lt\n      tag_59\n      jumpi\n      0x0100\n      dup1\n      dup4\n      sload\n      div\n      mul\n      dup4\n      mstore\n      swap2\n      0x20\n      add\n      swap2\n      jump(tag_58)\n    tag_59:\n      dup3\n      add\n      swap2\n      swap1\n      0x00\n      mstore\n      keccak256(0x00, 0x20)\n      swap1\n    tag_60:\n      dup2\n      sload\n      dup2\n      mstore\n      swap1\n      0x01\n      add\n      swap1\n      0x20\n      add\n      dup1\n      dup4\n      gt\n      tag_60\n      jumpi\n      dup3\n      swap1\n      sub\n      0x1f\n      and\n      dup3\n      add\n      swap2\n    tag_58:\n      pop\n      pop\n      pop\n      pop\n      pop\n      swap2\n      pop\n      swap4\n      pop\n      swap4\n      pop\n      swap4\n      pop\n      pop\n        /* \"contracts/SmartContract.sol\":466:755  function getUser(uint256 _userId)... */\n      swap2\n      swap4\n      swap1\n      swap3\n      pop\n      jump\t// out\n        /* \"contracts/SmartContract.sol\":1295:1385  function getUserCount() public view returns (uint256) {... */\n    tag_22:\n        /* \"contracts/SmartContract.sol\":1340:1347  uint256 */\n      0x00\n        /* \"contracts/SmartContract.sol\":1366:1371  users */\n      dup1\n        /* \"contracts/SmartContract.sol\":1366:1378  users.length */\n      dup1\n      sload\n      swap1\n      pop\n        /* \"contracts/SmartContract.sol\":1359:1378  return users.length */\n      swap1\n      pop\n        /* \"contracts/SmartContract.sol\":1295:1385  function getUserCount() public view returns (uint256) {... */\n      swap1\n      jump\t// out\n        /* \"contracts/SmartContract.sol\":813:1051  function updateUser(... */\n    tag_28:\n        /* \"contracts/SmartContract.sol\":934:947  uint256 index */\n      0x00\n        /* \"contracts/SmartContract.sol\":950:963  findUser(_id) */\n      tag_63\n        /* \"contracts/SmartContract.sol\":959:962  _id */\n      dup5\n        /* \"contracts/SmartContract.sol\":950:958  findUser */\n      tag_37\n        /* \"contracts/SmartContract.sol\":950:963  findUser(_id) */\n      jump\t// in\n    tag_63:\n        /* \"contracts/SmartContract.sol\":934:963  uint256 index = findUser(_id) */\n      swap1\n      pop\n        /* \"contracts/SmartContract.sol\":993:998  _name */\n      dup3\n        /* \"contracts/SmartContract.sol\":973:978  users */\n      0x00\n        /* \"contracts/SmartContract.sol\":979:984  index */\n      dup3\n        /* \"contracts/SmartContract.sol\":973:985  users[index] */\n      dup2\n      sload\n      dup2\n      lt\n      tag_64\n      jumpi\n      tag_65\n      tag_40\n      jump\t// in\n    tag_65:\n    tag_64:\n      swap1\n      0x00\n      mstore\n      keccak256(0x00, 0x20)\n      swap1\n      0x03\n      mul\n      add\n        /* \"contracts/SmartContract.sol\":973:990  users[index].name */\n      0x01\n      add\n        /* \"contracts/SmartContract.sol\":973:998  users[index].name = _name */\n      swap1\n      dup2\n      tag_67\n      swap2\n      swap1\n      tag_32\n      jump\t// in\n    tag_67:\n      pop\n        /* \"contracts/SmartContract.sol\":1033:1043  _favNumber */\n      dup2\n        /* \"contracts/SmartContract.sol\":1008:1013  users */\n      0x00\n        /* \"contracts/SmartContract.sol\":1014:1019  index */\n      dup3\n        /* \"contracts/SmartContract.sol\":1008:1020  users[index] */\n      dup2\n      sload\n      dup2\n      lt\n      tag_68\n      jumpi\n      tag_69\n      tag_40\n      jump\t// in\n    tag_69:\n    tag_68:\n      swap1\n      0x00\n      mstore\n      keccak256(0x00, 0x20)\n      swap1\n      0x03\n      mul\n      add\n        /* \"contracts/SmartContract.sol\":1008:1030  users[index].favNumber */\n      0x02\n      add\n        /* \"contracts/SmartContract.sol\":1008:1043  users[index].favNumber = _favNumber */\n      dup2\n      swap1\n      sstore\n      pop\n        /* \"contracts/SmartContract.sol\":924:1051  {... */\n      pop\n        /* \"contracts/SmartContract.sol\":813:1051  function updateUser(... */\n      pop\n      pop\n      pop\n      jump\t// out\n        /* \"contracts/SmartContract.sol\":1424:1669  function findUser(uint256 _id) internal view returns (uint256) {... */\n    tag_37:\n        /* \"contracts/SmartContract.sol\":1478:1485  uint256 */\n      0x00\n        /* \"contracts/SmartContract.sol\":1502:1511  uint256 i */\n      dup1\n        /* \"contracts/SmartContract.sol\":1514:1515  0 */\n      0x00\n        /* \"contracts/SmartContract.sol\":1502:1515  uint256 i = 0 */\n      swap1\n      pop\n        /* \"contracts/SmartContract.sol\":1497:1629  for (uint256 i = 0; i < users.length; i++) {... */\n    tag_72:\n        /* \"contracts/SmartContract.sol\":1521:1526  users */\n      0x00\n        /* \"contracts/SmartContract.sol\":1521:1533  users.length */\n      dup1\n      sload\n      swap1\n      pop\n        /* \"contracts/SmartContract.sol\":1517:1518  i */\n      dup2\n        /* \"contracts/SmartContract.sol\":1517:1533  i < users.length */\n      lt\n        /* \"contracts/SmartContract.sol\":1497:1629  for (uint256 i = 0; i < users.length; i++) {... */\n      iszero\n      tag_73\n      jumpi\n        /* \"contracts/SmartContract.sol\":1573:1576  _id */\n      dup3\n        /* \"contracts/SmartContract.sol\":1558:1563  users */\n      0x00\n        /* \"contracts/SmartContract.sol\":1564:1565  i */\n      dup3\n        /* \"contracts/SmartContract.sol\":1558:1566  users[i] */\n      dup2\n      sload\n      dup2\n      lt\n      tag_75\n      jumpi\n      tag_76\n      tag_40\n      jump\t// in\n    tag_76:\n    tag_75:\n      swap1\n      0x00\n      mstore\n      keccak256(0x00, 0x20)\n      swap1\n      0x03\n      mul\n      add\n        /* \"contracts/SmartContract.sol\":1558:1569  users[i].id */\n      0x00\n      add\n      sload\n        /* \"contracts/SmartContract.sol\":1558:1576  users[i].id == _id */\n      sub\n        /* \"contracts/SmartContract.sol\":1554:1619  if (users[i].id == _id) {... */\n      tag_78\n      jumpi\n        /* \"contracts/SmartContract.sol\":1603:1604  i */\n      dup1\n        /* \"contracts/SmartContract.sol\":1596:1604  return i */\n      swap2\n      pop\n      pop\n      jump(tag_71)\n        /* \"contracts/SmartContract.sol\":1554:1619  if (users[i].id == _id) {... */\n    tag_78:\n        /* \"contracts/SmartContract.sol\":1535:1538  i++ */\n      dup1\n      dup1\n      0x01\n      add\n      swap2\n      pop\n      pop\n        /* \"contracts/SmartContract.sol\":1497:1629  for (uint256 i = 0; i < users.length; i++) {... */\n      jump(tag_72)\n    tag_73:\n      pop\n        /* \"contracts/SmartContract.sol\":1638:1662  revert(\"user not found\") */\n      mload(0x40)\n      0x08c379a000000000000000000000000000000000000000000000000000000000\n      dup2\n      mstore\n      0x04\n      add\n      tag_79\n      swap1\n      tag_80\n      jump\t// in\n    tag_79:\n      mload(0x40)\n      dup1\n      swap2\n      sub\n      swap1\n      revert\n        /* \"contracts/SmartContract.sol\":1424:1669  function findUser(uint256 _id) internal view returns (uint256) {... */\n    tag_71:\n      swap2\n      swap1\n      pop\n      jump\t// out\n    tag_43:\n      pop\n      dup1\n      sload\n      tag_81\n      swap1\n      tag_56\n      jump\t// in\n    tag_81:\n      0x00\n      dup3\n      sstore\n      dup1\n      0x1f\n      lt\n      tag_83\n      jumpi\n      pop\n      jump(tag_82)\n    tag_83:\n      0x1f\n      add\n      0x20\n      swap1\n      div\n      swap1\n      0x00\n      mstore\n      keccak256(0x00, 0x20)\n      swap1\n      dup2\n      add\n      swap1\n      tag_84\n      swap2\n      swap1\n      tag_85\n      jump\t// in\n    tag_84:\n    tag_82:\n      pop\n      jump\t// out\n    tag_85:\n    tag_86:\n      dup1\n      dup3\n      gt\n      iszero\n      tag_87\n      jumpi\n      0x00\n      dup2\n      0x00\n      swap1\n      sstore\n      pop\n      0x01\n      add\n      jump(tag_86)\n    tag_87:\n      pop\n      swap1\n      jump\t// out\n        /* \"#utility.yul\":7:82   */\n    tag_88:\n        /* \"#utility.yul\":40:46   */\n      0x00\n        /* \"#utility.yul\":73:75   */\n      0x40\n        /* \"#utility.yul\":67:76   */\n      mload\n        /* \"#utility.yul\":57:76   */\n      swap1\n      pop\n        /* \"#utility.yul\":7:82   */\n      swap1\n      jump\t// out\n        /* \"#utility.yul\":88:205   */\n    tag_89:\n        /* \"#utility.yul\":197:198   */\n      0x00\n        /* \"#utility.yul\":194:195   */\n      dup1\n        /* \"#utility.yul\":187:199   */\n      revert\n        /* \"#utility.yul\":211:328   */\n    tag_90:\n        /* \"#utility.yul\":320:321   */\n      0x00\n        /* \"#utility.yul\":317:318   */\n      dup1\n        /* \"#utility.yul\":310:322   */\n      revert\n        /* \"#utility.yul\":334:451   */\n    tag_91:\n        /* \"#utility.yul\":443:444   */\n      0x00\n        /* \"#utility.yul\":440:441   */\n      dup1\n        /* \"#utility.yul\":433:445   */\n      revert\n        /* \"#utility.yul\":457:574   */\n    tag_92:\n        /* \"#utility.yul\":566:567   */\n      0x00\n        /* \"#utility.yul\":563:564   */\n      dup1\n        /* \"#utility.yul\":556:568   */\n      revert\n        /* \"#utility.yul\":580:682   */\n    tag_93:\n        /* \"#utility.yul\":621:627   */\n      0x00\n        /* \"#utility.yul\":672:674   */\n      0x1f\n        /* \"#utility.yul\":668:675   */\n      not\n        /* \"#utility.yul\":663:665   */\n      0x1f\n        /* \"#utility.yul\":656:661   */\n      dup4\n        /* \"#utility.yul\":652:666   */\n      add\n        /* \"#utility.yul\":648:676   */\n      and\n        /* \"#utility.yul\":638:676   */\n      swap1\n      pop\n        /* \"#utility.yul\":580:682   */\n      swap2\n      swap1\n      pop\n      jump\t// out\n        /* \"#utility.yul\":688:868   */\n    tag_94:\n        /* \"#utility.yul\":736:813   */\n      0x4e487b7100000000000000000000000000000000000000000000000000000000\n        /* \"#utility.yul\":733:734   */\n      0x00\n        /* \"#utility.yul\":726:814   */\n      mstore\n        /* \"#utility.yul\":833:837   */\n      0x41\n        /* \"#utility.yul\":830:831   */\n      0x04\n        /* \"#utility.yul\":823:838   */\n      mstore\n        /* \"#utility.yul\":857:861   */\n      0x24\n        /* \"#utility.yul\":854:855   */\n      0x00\n        /* \"#utility.yul\":847:862   */\n      revert\n        /* \"#utility.yul\":874:1155   */\n    tag_95:\n        /* \"#utility.yul\":957:984   */\n      tag_137\n        /* \"#utility.yul\":979:983   */\n      dup3\n        /* \"#utility.yul\":957:984   */\n      tag_93\n      jump\t// in\n    tag_137:\n        /* \"#utility.yul\":949:955   */\n      dup2\n        /* \"#utility.yul\":945:985   */\n      add\n        /* \"#utility.yul\":1087:1093   */\n      dup2\n        /* \"#utility.yul\":1075:1085   */\n      dup2\n        /* \"#utility.yul\":1072:1094   */\n      lt\n        /* \"#utility.yul\":1051:1069   */\n      0xffffffffffffffff\n        /* \"#utility.yul\":1039:1049   */\n      dup3\n        /* \"#utility.yul\":1036:1070   */\n      gt\n        /* \"#utility.yul\":1033:1095   */\n      or\n        /* \"#utility.yul\":1030:1118   */\n      iszero\n      tag_138\n      jumpi\n        /* \"#utility.yul\":1098:1116   */\n      tag_139\n      tag_94\n      jump\t// in\n    tag_139:\n        /* \"#utility.yul\":1030:1118   */\n    tag_138:\n        /* \"#utility.yul\":1138:1148   */\n      dup1\n        /* \"#utility.yul\":1134:1136   */\n      0x40\n        /* \"#utility.yul\":1127:1149   */\n      mstore\n        /* \"#utility.yul\":917:1155   */\n      pop\n        /* \"#utility.yul\":874:1155   */\n      pop\n      pop\n      jump\t// out\n        /* \"#utility.yul\":1161:1290   */\n    tag_96:\n        /* \"#utility.yul\":1195:1201   */\n      0x00\n        /* \"#utility.yul\":1222:1242   */\n      tag_141\n      tag_88\n      jump\t// in\n    tag_141:\n        /* \"#utility.yul\":1212:1242   */\n      swap1\n      pop\n        /* \"#utility.yul\":1251:1284   */\n      tag_142\n        /* \"#utility.yul\":1279:1283   */\n      dup3\n        /* \"#utility.yul\":1271:1277   */\n      dup3\n        /* \"#utility.yul\":1251:1284   */\n      tag_95\n      jump\t// in\n    tag_142:\n        /* \"#utility.yul\":1161:1290   */\n      swap2\n      swap1\n      pop\n      jump\t// out\n        /* \"#utility.yul\":1296:1604   */\n    tag_97:\n        /* \"#utility.yul\":1358:1362   */\n      0x00\n        /* \"#utility.yul\":1448:1466   */\n      0xffffffffffffffff\n        /* \"#utility.yul\":1440:1446   */\n      dup3\n        /* \"#utility.yul\":1437:1467   */\n      gt\n        /* \"#utility.yul\":1434:1490   */\n      iszero\n      tag_144\n      jumpi\n        /* \"#utility.yul\":1470:1488   */\n      tag_145\n      tag_94\n      jump\t// in\n    tag_145:\n        /* \"#utility.yul\":1434:1490   */\n    tag_144:\n        /* \"#utility.yul\":1508:1537   */\n      tag_146\n        /* \"#utility.yul\":1530:1536   */\n      dup3\n        /* \"#utility.yul\":1508:1537   */\n      tag_93\n      jump\t// in\n    tag_146:\n        /* \"#utility.yul\":1500:1537   */\n      swap1\n      pop\n        /* \"#utility.yul\":1592:1596   */\n      0x20\n        /* \"#utility.yul\":1586:1590   */\n      dup2\n        /* \"#utility.yul\":1582:1597   */\n      add\n        /* \"#utility.yul\":1574:1597   */\n      swap1\n      pop\n        /* \"#utility.yul\":1296:1604   */\n      swap2\n      swap1\n      pop\n      jump\t// out\n        /* \"#utility.yul\":1610:1758   */\n    tag_98:\n        /* \"#utility.yul\":1708:1714   */\n      dup3\n        /* \"#utility.yul\":1703:1706   */\n      dup2\n        /* \"#utility.yul\":1698:1701   */\n      dup4\n        /* \"#utility.yul\":1685:1715   */\n      calldatacopy\n        /* \"#utility.yul\":1749:1750   */\n      0x00\n        /* \"#utility.yul\":1740:1746   */\n      dup4\n        /* \"#utility.yul\":1735:1738   */\n      dup4\n        /* \"#utility.yul\":1731:1747   */\n      add\n        /* \"#utility.yul\":1724:1751   */\n      mstore\n        /* \"#utility.yul\":1610:1758   */\n      pop\n      pop\n      pop\n      jump\t// out\n        /* \"#utility.yul\":1764:2189   */\n    tag_99:\n        /* \"#utility.yul\":1842:1847   */\n      0x00\n        /* \"#utility.yul\":1867:1933   */\n      tag_149\n        /* \"#utility.yul\":1883:1932   */\n      tag_150\n        /* \"#utility.yul\":1925:1931   */\n      dup5\n        /* \"#utility.yul\":1883:1932   */\n      tag_97\n      jump\t// in\n    tag_150:\n        /* \"#utility.yul\":1867:1933   */\n      tag_96\n      jump\t// in\n    tag_149:\n        /* \"#utility.yul\":1858:1933   */\n      swap1\n      pop\n        /* \"#utility.yul\":1956:1962   */\n      dup3\n        /* \"#utility.yul\":1949:1954   */\n      dup2\n        /* \"#utility.yul\":1942:1963   */\n      mstore\n        /* \"#utility.yul\":1994:1998   */\n      0x20\n        /* \"#utility.yul\":1987:1992   */\n      dup2\n        /* \"#utility.yul\":1983:1999   */\n      add\n        /* \"#utility.yul\":2032:2035   */\n      dup5\n        /* \"#utility.yul\":2023:2029   */\n      dup5\n        /* \"#utility.yul\":2018:2021   */\n      dup5\n        /* \"#utility.yul\":2014:2030   */\n      add\n        /* \"#utility.yul\":2011:2036   */\n      gt\n        /* \"#utility.yul\":2008:2120   */\n      iszero\n      tag_151\n      jumpi\n        /* \"#utility.yul\":2039:2118   */\n      tag_152\n      tag_92\n      jump\t// in\n    tag_152:\n        /* \"#utility.yul\":2008:2120   */\n    tag_151:\n        /* \"#utility.yul\":2129:2183   */\n      tag_153\n        /* \"#utility.yul\":2176:2182   */\n      dup5\n        /* \"#utility.yul\":2171:2174   */\n      dup3\n        /* \"#utility.yul\":2166:2169   */\n      dup6\n        /* \"#utility.yul\":2129:2183   */\n      tag_98\n      jump\t// in\n    tag_153:\n        /* \"#utility.yul\":1848:2189   */\n      pop\n        /* \"#utility.yul\":1764:2189   */\n      swap4\n      swap3\n      pop\n      pop\n      pop\n      jump\t// out\n        /* \"#utility.yul\":2209:2549   */\n    tag_100:\n        /* \"#utility.yul\":2265:2270   */\n      0x00\n        /* \"#utility.yul\":2314:2317   */\n      dup3\n        /* \"#utility.yul\":2307:2311   */\n      0x1f\n        /* \"#utility.yul\":2299:2305   */\n      dup4\n        /* \"#utility.yul\":2295:2312   */\n      add\n        /* \"#utility.yul\":2291:2318   */\n      slt\n        /* \"#utility.yul\":2281:2403   */\n      tag_155\n      jumpi\n        /* \"#utility.yul\":2322:2401   */\n      tag_156\n      tag_91\n      jump\t// in\n    tag_156:\n        /* \"#utility.yul\":2281:2403   */\n    tag_155:\n        /* \"#utility.yul\":2439:2445   */\n      dup2\n        /* \"#utility.yul\":2426:2446   */\n      calldataload\n        /* \"#utility.yul\":2464:2543   */\n      tag_157\n        /* \"#utility.yul\":2539:2542   */\n      dup5\n        /* \"#utility.yul\":2531:2537   */\n      dup3\n        /* \"#utility.yul\":2524:2528   */\n      0x20\n        /* \"#utility.yul\":2516:2522   */\n      dup7\n        /* \"#utility.yul\":2512:2529   */\n      add\n        /* \"#utility.yul\":2464:2543   */\n      tag_99\n      jump\t// in\n    tag_157:\n        /* \"#utility.yul\":2455:2543   */\n      swap2\n      pop\n        /* \"#utility.yul\":2271:2549   */\n      pop\n        /* \"#utility.yul\":2209:2549   */\n      swap3\n      swap2\n      pop\n      pop\n      jump\t// out\n        /* \"#utility.yul\":2555:2632   */\n    tag_101:\n        /* \"#utility.yul\":2592:2599   */\n      0x00\n        /* \"#utility.yul\":2621:2626   */\n      dup2\n        /* \"#utility.yul\":2610:2626   */\n      swap1\n      pop\n        /* \"#utility.yul\":2555:2632   */\n      swap2\n      swap1\n      pop\n      jump\t// out\n        /* \"#utility.yul\":2638:2760   */\n    tag_102:\n        /* \"#utility.yul\":2711:2735   */\n      tag_160\n        /* \"#utility.yul\":2729:2734   */\n      dup2\n        /* \"#utility.yul\":2711:2735   */\n      tag_101\n      jump\t// in\n    tag_160:\n        /* \"#utility.yul\":2704:2709   */\n      dup2\n        /* \"#utility.yul\":2701:2736   */\n      eq\n        /* \"#utility.yul\":2691:2754   */\n      tag_161\n      jumpi\n        /* \"#utility.yul\":2750:2751   */\n      0x00\n        /* \"#utility.yul\":2747:2748   */\n      dup1\n        /* \"#utility.yul\":2740:2752   */\n      revert\n        /* \"#utility.yul\":2691:2754   */\n    tag_161:\n        /* \"#utility.yul\":2638:2760   */\n      pop\n      jump\t// out\n        /* \"#utility.yul\":2766:2905   */\n    tag_103:\n        /* \"#utility.yul\":2812:2817   */\n      0x00\n        /* \"#utility.yul\":2850:2856   */\n      dup2\n        /* \"#utility.yul\":2837:2857   */\n      calldataload\n        /* \"#utility.yul\":2828:2857   */\n      swap1\n      pop\n        /* \"#utility.yul\":2866:2899   */\n      tag_163\n        /* \"#utility.yul\":2893:2898   */\n      dup2\n        /* \"#utility.yul\":2866:2899   */\n      tag_102\n      jump\t// in\n    tag_163:\n        /* \"#utility.yul\":2766:2905   */\n      swap3\n      swap2\n      pop\n      pop\n      jump\t// out\n        /* \"#utility.yul\":2911:3565   */\n    tag_10:\n        /* \"#utility.yul\":2989:2995   */\n      0x00\n        /* \"#utility.yul\":2997:3003   */\n      dup1\n        /* \"#utility.yul\":3046:3048   */\n      0x40\n        /* \"#utility.yul\":3034:3043   */\n      dup4\n        /* \"#utility.yul\":3025:3032   */\n      dup6\n        /* \"#utility.yul\":3021:3044   */\n      sub\n        /* \"#utility.yul\":3017:3049   */\n      slt\n        /* \"#utility.yul\":3014:3133   */\n      iszero\n      tag_165\n      jumpi\n        /* \"#utility.yul\":3052:3131   */\n      tag_166\n      tag_89\n      jump\t// in\n    tag_166:\n        /* \"#utility.yul\":3014:3133   */\n    tag_165:\n        /* \"#utility.yul\":3200:3201   */\n      0x00\n        /* \"#utility.yul\":3189:3198   */\n      dup4\n        /* \"#utility.yul\":3185:3202   */\n      add\n        /* \"#utility.yul\":3172:3203   */\n      calldataload\n        /* \"#utility.yul\":3230:3248   */\n      0xffffffffffffffff\n        /* \"#utility.yul\":3222:3228   */\n      dup2\n        /* \"#utility.yul\":3219:3249   */\n      gt\n        /* \"#utility.yul\":3216:3333   */\n      iszero\n      tag_167\n      jumpi\n        /* \"#utility.yul\":3252:3331   */\n      tag_168\n      tag_90\n      jump\t// in\n    tag_168:\n        /* \"#utility.yul\":3216:3333   */\n    tag_167:\n        /* \"#utility.yul\":3357:3420   */\n      tag_169\n        /* \"#utility.yul\":3412:3419   */\n      dup6\n        /* \"#utility.yul\":3403:3409   */\n      dup3\n        /* \"#utility.yul\":3392:3401   */\n      dup7\n        /* \"#utility.yul\":3388:3410   */\n      add\n        /* \"#utility.yul\":3357:3420   */\n      tag_100\n      jump\t// in\n    tag_169:\n        /* \"#utility.yul\":3347:3420   */\n      swap3\n      pop\n        /* \"#utility.yul\":3143:3430   */\n      pop\n        /* \"#utility.yul\":3469:3471   */\n      0x20\n        /* \"#utility.yul\":3495:3548   */\n      tag_170\n        /* \"#utility.yul\":3540:3547   */\n      dup6\n        /* \"#utility.yul\":3531:3537   */\n      dup3\n        /* \"#utility.yul\":3520:3529   */\n      dup7\n        /* \"#utility.yul\":3516:3538   */\n      add\n        /* \"#utility.yul\":3495:3548   */\n      tag_103\n      jump\t// in\n    tag_170:\n        /* \"#utility.yul\":3485:3548   */\n      swap2\n      pop\n        /* \"#utility.yul\":3440:3558   */\n      pop\n        /* \"#utility.yul\":2911:3565   */\n      swap3\n      pop\n      swap3\n      swap1\n      pop\n      jump\t// out\n        /* \"#utility.yul\":3571:3900   */\n    tag_14:\n        /* \"#utility.yul\":3630:3636   */\n      0x00\n        /* \"#utility.yul\":3679:3681   */\n      0x20\n        /* \"#utility.yul\":3667:3676   */\n      dup3\n        /* \"#utility.yul\":3658:3665   */\n      dup5\n        /* \"#utility.yul\":3654:3677   */\n      sub\n        /* \"#utility.yul\":3650:3682   */\n      slt\n        /* \"#utility.yul\":3647:3766   */\n      iszero\n      tag_172\n      jumpi\n        /* \"#utility.yul\":3685:3764   */\n      tag_173\n      tag_89\n      jump\t// in\n    tag_173:\n        /* \"#utility.yul\":3647:3766   */\n    tag_172:\n        /* \"#utility.yul\":3805:3806   */\n      0x00\n        /* \"#utility.yul\":3830:3883   */\n      tag_174\n        /* \"#utility.yul\":3875:3882   */\n      dup5\n        /* \"#utility.yul\":3866:3872   */\n      dup3\n        /* \"#utility.yul\":3855:3864   */\n      dup6\n        /* \"#utility.yul\":3851:3873   */\n      add\n        /* \"#utility.yul\":3830:3883   */\n      tag_103\n      jump\t// in\n    tag_174:\n        /* \"#utility.yul\":3820:3883   */\n      swap2\n      pop\n        /* \"#utility.yul\":3776:3893   */\n      pop\n        /* \"#utility.yul\":3571:3900   */\n      swap3\n      swap2\n      pop\n      pop\n      jump\t// out\n        /* \"#utility.yul\":3906:4024   */\n    tag_104:\n        /* \"#utility.yul\":3993:4017   */\n      tag_176\n        /* \"#utility.yul\":4011:4016   */\n      dup2\n        /* \"#utility.yul\":3993:4017   */\n      tag_101\n      jump\t// in\n    tag_176:\n        /* \"#utility.yul\":3988:3991   */\n      dup3\n        /* \"#utility.yul\":3981:4018   */\n      mstore\n        /* \"#utility.yul\":3906:4024   */\n      pop\n      pop\n      jump\t// out\n        /* \"#utility.yul\":4030:4129   */\n    tag_105:\n        /* \"#utility.yul\":4082:4088   */\n      0x00\n        /* \"#utility.yul\":4116:4121   */\n      dup2\n        /* \"#utility.yul\":4110:4122   */\n      mload\n        /* \"#utility.yul\":4100:4122   */\n      swap1\n      pop\n        /* \"#utility.yul\":4030:4129   */\n      swap2\n      swap1\n      pop\n      jump\t// out\n        /* \"#utility.yul\":4135:4304   */\n    tag_106:\n        /* \"#utility.yul\":4219:4230   */\n      0x00\n        /* \"#utility.yul\":4253:4259   */\n      dup3\n        /* \"#utility.yul\":4248:4251   */\n      dup3\n        /* \"#utility.yul\":4241:4260   */\n      mstore\n        /* \"#utility.yul\":4293:4297   */\n      0x20\n        /* \"#utility.yul\":4288:4291   */\n      dup3\n        /* \"#utility.yul\":4284:4298   */\n      add\n        /* \"#utility.yul\":4269:4298   */\n      swap1\n      pop\n        /* \"#utility.yul\":4135:4304   */\n      swap3\n      swap2\n      pop\n      pop\n      jump\t// out\n        /* \"#utility.yul\":4310:4449   */\n    tag_107:\n        /* \"#utility.yul\":4399:4405   */\n      dup3\n        /* \"#utility.yul\":4394:4397   */\n      dup2\n        /* \"#utility.yul\":4389:4392   */\n      dup4\n        /* \"#utility.yul\":4383:4406   */\n      mcopy\n        /* \"#utility.yul\":4440:4441   */\n      0x00\n        /* \"#utility.yul\":4431:4437   */\n      dup4\n        /* \"#utility.yul\":4426:4429   */\n      dup4\n        /* \"#utility.yul\":4422:4438   */\n      add\n        /* \"#utility.yul\":4415:4442   */\n      mstore\n        /* \"#utility.yul\":4310:4449   */\n      pop\n      pop\n      pop\n      jump\t// out\n        /* \"#utility.yul\":4455:4832   */\n    tag_108:\n        /* \"#utility.yul\":4543:4546   */\n      0x00\n        /* \"#utility.yul\":4571:4610   */\n      tag_181\n        /* \"#utility.yul\":4604:4609   */\n      dup3\n        /* \"#utility.yul\":4571:4610   */\n      tag_105\n      jump\t// in\n    tag_181:\n        /* \"#utility.yul\":4626:4697   */\n      tag_182\n        /* \"#utility.yul\":4690:4696   */\n      dup2\n        /* \"#utility.yul\":4685:4688   */\n      dup6\n        /* \"#utility.yul\":4626:4697   */\n      tag_106\n      jump\t// in\n    tag_182:\n        /* \"#utility.yul\":4619:4697   */\n      swap4\n      pop\n        /* \"#utility.yul\":4706:4771   */\n      tag_183\n        /* \"#utility.yul\":4764:4770   */\n      dup2\n        /* \"#utility.yul\":4759:4762   */\n      dup6\n        /* \"#utility.yul\":4752:4756   */\n      0x20\n        /* \"#utility.yul\":4745:4750   */\n      dup7\n        /* \"#utility.yul\":4741:4757   */\n      add\n        /* \"#utility.yul\":4706:4771   */\n      tag_107\n      jump\t// in\n    tag_183:\n        /* \"#utility.yul\":4796:4825   */\n      tag_184\n        /* \"#utility.yul\":4818:4824   */\n      dup2\n        /* \"#utility.yul\":4796:4825   */\n      tag_93\n      jump\t// in\n    tag_184:\n        /* \"#utility.yul\":4791:4794   */\n      dup5\n        /* \"#utility.yul\":4787:4826   */\n      add\n        /* \"#utility.yul\":4780:4826   */\n      swap2\n      pop\n        /* \"#utility.yul\":4547:4832   */\n      pop\n        /* \"#utility.yul\":4455:4832   */\n      swap3\n      swap2\n      pop\n      pop\n      jump\t// out\n        /* \"#utility.yul\":4838:5371   */\n    tag_20:\n        /* \"#utility.yul\":5007:5011   */\n      0x00\n        /* \"#utility.yul\":5045:5047   */\n      0x60\n        /* \"#utility.yul\":5034:5043   */\n      dup3\n        /* \"#utility.yul\":5030:5048   */\n      add\n        /* \"#utility.yul\":5022:5048   */\n      swap1\n      pop\n        /* \"#utility.yul\":5058:5129   */\n      tag_186\n        /* \"#utility.yul\":5126:5127   */\n      0x00\n        /* \"#utility.yul\":5115:5124   */\n      dup4\n        /* \"#utility.yul\":5111:5128   */\n      add\n        /* \"#utility.yul\":5102:5108   */\n      dup7\n        /* \"#utility.yul\":5058:5129   */\n      tag_104\n      jump\t// in\n    tag_186:\n        /* \"#utility.yul\":5176:5185   */\n      dup2\n        /* \"#utility.yul\":5170:5174   */\n      dup2\n        /* \"#utility.yul\":5166:5186   */\n      sub\n        /* \"#utility.yul\":5161:5163   */\n      0x20\n        /* \"#utility.yul\":5150:5159   */\n      dup4\n        /* \"#utility.yul\":5146:5164   */\n      add\n        /* \"#utility.yul\":5139:5187   */\n      mstore\n        /* \"#utility.yul\":5204:5282   */\n      tag_187\n        /* \"#utility.yul\":5277:5281   */\n      dup2\n        /* \"#utility.yul\":5268:5274   */\n      dup6\n        /* \"#utility.yul\":5204:5282   */\n      tag_108\n      jump\t// in\n    tag_187:\n        /* \"#utility.yul\":5196:5282   */\n      swap1\n      pop\n        /* \"#utility.yul\":5292:5364   */\n      tag_188\n        /* \"#utility.yul\":5360:5362   */\n      0x40\n        /* \"#utility.yul\":5349:5358   */\n      dup4\n        /* \"#utility.yul\":5345:5363   */\n      add\n        /* \"#utility.yul\":5336:5342   */\n      dup5\n        /* \"#utility.yul\":5292:5364   */\n      tag_104\n      jump\t// in\n    tag_188:\n        /* \"#utility.yul\":4838:5371   */\n      swap5\n      swap4\n      pop\n      pop\n      pop\n      pop\n      jump\t// out\n        /* \"#utility.yul\":5377:5599   */\n    tag_24:\n        /* \"#utility.yul\":5470:5474   */\n      0x00\n        /* \"#utility.yul\":5508:5510   */\n      0x20\n        /* \"#utility.yul\":5497:5506   */\n      dup3\n        /* \"#utility.yul\":5493:5511   */\n      add\n        /* \"#utility.yul\":5485:5511   */\n      swap1\n      pop\n        /* \"#utility.yul\":5521:5592   */\n      tag_190\n        /* \"#utility.yul\":5589:5590   */\n      0x00\n        /* \"#utility.yul\":5578:5587   */\n      dup4\n        /* \"#utility.yul\":5574:5591   */\n      add\n        /* \"#utility.yul\":5565:5571   */\n      dup5\n        /* \"#utility.yul\":5521:5592   */\n      tag_104\n      jump\t// in\n    tag_190:\n        /* \"#utility.yul\":5377:5599   */\n      swap3\n      swap2\n      pop\n      pop\n      jump\t// out\n        /* \"#utility.yul\":5605:6404   */\n    tag_27:\n        /* \"#utility.yul\":5692:5698   */\n      0x00\n        /* \"#utility.yul\":5700:5706   */\n      dup1\n        /* \"#utility.yul\":5708:5714   */\n      0x00\n        /* \"#utility.yul\":5757:5759   */\n      0x60\n        /* \"#utility.yul\":5745:5754   */\n      dup5\n        /* \"#utility.yul\":5736:5743   */\n      dup7\n        /* \"#utility.yul\":5732:5755   */\n      sub\n        /* \"#utility.yul\":5728:5760   */\n      slt\n        /* \"#utility.yul\":5725:5844   */\n      iszero\n      tag_192\n      jumpi\n        /* \"#utility.yul\":5763:5842   */\n      tag_193\n      tag_89\n      jump\t// in\n    tag_193:\n        /* \"#utility.yul\":5725:5844   */\n    tag_192:\n        /* \"#utility.yul\":5883:5884   */\n      0x00\n        /* \"#utility.yul\":5908:5961   */\n      tag_194\n        /* \"#utility.yul\":5953:5960   */\n      dup7\n        /* \"#utility.yul\":5944:5950   */\n      dup3\n        /* \"#utility.yul\":5933:5942   */\n      dup8\n        /* \"#utility.yul\":5929:5951   */\n      add\n        /* \"#utility.yul\":5908:5961   */\n      tag_103\n      jump\t// in\n    tag_194:\n        /* \"#utility.yul\":5898:5961   */\n      swap4\n      pop\n        /* \"#utility.yul\":5854:5971   */\n      pop\n        /* \"#utility.yul\":6038:6040   */\n      0x20\n        /* \"#utility.yul\":6027:6036   */\n      dup5\n        /* \"#utility.yul\":6023:6041   */\n      add\n        /* \"#utility.yul\":6010:6042   */\n      calldataload\n        /* \"#utility.yul\":6069:6087   */\n      0xffffffffffffffff\n        /* \"#utility.yul\":6061:6067   */\n      dup2\n        /* \"#utility.yul\":6058:6088   */\n      gt\n        /* \"#utility.yul\":6055:6172   */\n      iszero\n      tag_195\n      jumpi\n        /* \"#utility.yul\":6091:6170   */\n      tag_196\n      tag_90\n      jump\t// in\n    tag_196:\n        /* \"#utility.yul\":6055:6172   */\n    tag_195:\n        /* \"#utility.yul\":6196:6259   */\n      tag_197\n        /* \"#utility.yul\":6251:6258   */\n      dup7\n        /* \"#utility.yul\":6242:6248   */\n      dup3\n        /* \"#utility.yul\":6231:6240   */\n      dup8\n        /* \"#utility.yul\":6227:6249   */\n      add\n        /* \"#utility.yul\":6196:6259   */\n      tag_100\n      jump\t// in\n    tag_197:\n        /* \"#utility.yul\":6186:6259   */\n      swap3\n      pop\n        /* \"#utility.yul\":5981:6269   */\n      pop\n        /* \"#utility.yul\":6308:6310   */\n      0x40\n        /* \"#utility.yul\":6334:6387   */\n      tag_198\n        /* \"#utility.yul\":6379:6386   */\n      dup7\n        /* \"#utility.yul\":6370:6376   */\n      dup3\n        /* \"#utility.yul\":6359:6368   */\n      dup8\n        /* \"#utility.yul\":6355:6377   */\n      add\n        /* \"#utility.yul\":6334:6387   */\n      tag_103\n      jump\t// in\n    tag_198:\n        /* \"#utility.yul\":6324:6387   */\n      swap2\n      pop\n        /* \"#utility.yul\":6279:6397   */\n      pop\n        /* \"#utility.yul\":5605:6404   */\n      swap3\n      pop\n      swap3\n      pop\n      swap3\n      jump\t// out\n        /* \"#utility.yul\":6410:6590   */\n    tag_109:\n        /* \"#utility.yul\":6458:6535   */\n      0x4e487b7100000000000000000000000000000000000000000000000000000000\n        /* \"#utility.yul\":6455:6456   */\n      0x00\n        /* \"#utility.yul\":6448:6536   */\n      mstore\n        /* \"#utility.yul\":6555:6559   */\n      0x22\n        /* \"#utility.yul\":6552:6553   */\n      0x04\n        /* \"#utility.yul\":6545:6560   */\n      mstore\n        /* \"#utility.yul\":6579:6583   */\n      0x24\n        /* \"#utility.yul\":6576:6577   */\n      0x00\n        /* \"#utility.yul\":6569:6584   */\n      revert\n        /* \"#utility.yul\":6596:6916   */\n    tag_56:\n        /* \"#utility.yul\":6640:6646   */\n      0x00\n        /* \"#utility.yul\":6677:6678   */\n      0x02\n        /* \"#utility.yul\":6671:6675   */\n      dup3\n        /* \"#utility.yul\":6667:6679   */\n      div\n        /* \"#utility.yul\":6657:6679   */\n      swap1\n      pop\n        /* \"#utility.yul\":6724:6725   */\n      0x01\n        /* \"#utility.yul\":6718:6722   */\n      dup3\n        /* \"#utility.yul\":6714:6726   */\n      and\n        /* \"#utility.yul\":6745:6763   */\n      dup1\n        /* \"#utility.yul\":6735:6816   */\n      tag_201\n      jumpi\n        /* \"#utility.yul\":6801:6805   */\n      0x7f\n        /* \"#utility.yul\":6793:6799   */\n      dup3\n        /* \"#utility.yul\":6789:6806   */\n      and\n        /* \"#utility.yul\":6779:6806   */\n      swap2\n      pop\n        /* \"#utility.yul\":6735:6816   */\n    tag_201:\n        /* \"#utility.yul\":6863:6865   */\n      0x20\n        /* \"#utility.yul\":6855:6861   */\n      dup3\n        /* \"#utility.yul\":6852:6866   */\n      lt\n        /* \"#utility.yul\":6832:6850   */\n      dup2\n        /* \"#utility.yul\":6829:6867   */\n      sub\n        /* \"#utility.yul\":6826:6910   */\n      tag_202\n      jumpi\n        /* \"#utility.yul\":6882:6900   */\n      tag_203\n      tag_109\n      jump\t// in\n    tag_203:\n        /* \"#utility.yul\":6826:6910   */\n    tag_202:\n        /* \"#utility.yul\":6647:6916   */\n      pop\n        /* \"#utility.yul\":6596:6916   */\n      swap2\n      swap1\n      pop\n      jump\t// out\n        /* \"#utility.yul\":6922:7063   */\n    tag_110:\n        /* \"#utility.yul\":6971:6975   */\n      0x00\n        /* \"#utility.yul\":6994:6997   */\n      dup2\n        /* \"#utility.yul\":6986:6997   */\n      swap1\n      pop\n        /* \"#utility.yul\":7017:7020   */\n      dup2\n        /* \"#utility.yul\":7014:7015   */\n      0x00\n        /* \"#utility.yul\":7007:7021   */\n      mstore\n        /* \"#utility.yul\":7051:7055   */\n      0x20\n        /* \"#utility.yul\":7048:7049   */\n      0x00\n        /* \"#utility.yul\":7038:7056   */\n      keccak256\n        /* \"#utility.yul\":7030:7056   */\n      swap1\n      pop\n        /* \"#utility.yul\":6922:7063   */\n      swap2\n      swap1\n      pop\n      jump\t// out\n        /* \"#utility.yul\":7069:7162   */\n    tag_111:\n        /* \"#utility.yul\":7106:7112   */\n      0x00\n        /* \"#utility.yul\":7153:7155   */\n      0x20\n        /* \"#utility.yul\":7148:7150   */\n      0x1f\n        /* \"#utility.yul\":7141:7146   */\n      dup4\n        /* \"#utility.yul\":7137:7151   */\n      add\n        /* \"#utility.yul\":7133:7156   */\n      div\n        /* \"#utility.yul\":7123:7156   */\n      swap1\n      pop\n        /* \"#utility.yul\":7069:7162   */\n      swap2\n      swap1\n      pop\n      jump\t// out\n        /* \"#utility.yul\":7168:7275   */\n    tag_112:\n        /* \"#utility.yul\":7212:7220   */\n      0x00\n        /* \"#utility.yul\":7262:7267   */\n      dup3\n        /* \"#utility.yul\":7256:7260   */\n      dup3\n        /* \"#utility.yul\":7252:7268   */\n      shl\n        /* \"#utility.yul\":7231:7268   */\n      swap1\n      pop\n        /* \"#utility.yul\":7168:7275   */\n      swap3\n      swap2\n      pop\n      pop\n      jump\t// out\n        /* \"#utility.yul\":7281:7674   */\n    tag_113:\n        /* \"#utility.yul\":7350:7356   */\n      0x00\n        /* \"#utility.yul\":7400:7401   */\n      0x08\n        /* \"#utility.yul\":7388:7398   */\n      dup4\n        /* \"#utility.yul\":7384:7402   */\n      mul\n        /* \"#utility.yul\":7423:7520   */\n      tag_208\n        /* \"#utility.yul\":7453:7519   */\n      0xffffffffffffffffffffffffffffffffffffffffffffffffffffffffffffffff\n        /* \"#utility.yul\":7442:7451   */\n      dup3\n        /* \"#utility.yul\":7423:7520   */\n      tag_112\n      jump\t// in\n    tag_208:\n        /* \"#utility.yul\":7541:7580   */\n      tag_209\n        /* \"#utility.yul\":7571:7579   */\n      dup7\n        /* \"#utility.yul\":7560:7569   */\n      dup4\n        /* \"#utility.yul\":7541:7580   */\n      tag_112\n      jump\t// in\n    tag_209:\n        /* \"#utility.yul\":7529:7580   */\n      swap6\n      pop\n        /* \"#utility.yul\":7613:7617   */\n      dup1\n        /* \"#utility.yul\":7609:7618   */\n      not\n        /* \"#utility.yul\":7602:7607   */\n      dup5\n        /* \"#utility.yul\":7598:7619   */\n      and\n        /* \"#utility.yul\":7589:7619   */\n      swap4\n      pop\n        /* \"#utility.yul\":7662:7666   */\n      dup1\n        /* \"#utility.yul\":7652:7660   */\n      dup7\n        /* \"#utility.yul\":7648:7667   */\n      and\n        /* \"#utility.yul\":7641:7646   */\n      dup5\n        /* \"#utility.yul\":7638:7668   */\n      or\n        /* \"#utility.yul\":7628:7668   */\n      swap3\n      pop\n        /* \"#utility.yul\":7357:7674   */\n      pop\n      pop\n        /* \"#utility.yul\":7281:7674   */\n      swap4\n      swap3\n      pop\n      pop\n      pop\n      jump\t// out\n        /* \"#utility.yul\":7680:7740   */\n    tag_114:\n        /* \"#utility.yul\":7708:7711   */\n      0x00\n        /* \"#utility.yul\":7729:7734   */\n      dup2\n        /* \"#utility.yul\":7722:7734   */\n      swap1\n      pop\n        /* \"#utility.yul\":7680:7740   */\n      swap2\n      swap1\n      pop\n      jump\t// out\n        /* \"#utility.yul\":7746:7888   */\n    tag_115:\n        /* \"#utility.yul\":7796:7805   */\n      0x00\n        /* \"#utility.yul\":7829:7882   */\n      tag_212\n        /* \"#utility.yul\":7847:7881   */\n      tag_213\n        /* \"#utility.yul\":7856:7880   */\n      tag_214\n        /* \"#utility.yul\":7874:7879   */\n      dup5\n        /* \"#utility.yul\":7856:7880   */\n      tag_101\n      jump\t// in\n    tag_214:\n        /* \"#utility.yul\":7847:7881   */\n      tag_114\n      jump\t// in\n    tag_213:\n        /* \"#utility.yul\":7829:7882   */\n      tag_101\n      jump\t// in\n    tag_212:\n        /* \"#utility.yul\":7816:7882   */\n      swap1\n      pop\n        /* \"#utility.yul\":7746:7888   */\n      swap2\n      swap1\n      pop\n      jump\t// out\n        /* \"#utility.yul\":7894:7969   */\n    tag_116:\n        /* \"#utility.yul\":7937:7940   */\n      0x00\n        /* \"#utility.yul\":7958:7963   */\n      dup2\n        /* \"#utility.yul\":7951:7963   */\n      swap1\n      pop\n        /* \"#utility.yul\":7894:7969   */\n      swap2\n      swap1\n      pop\n      jump\t// out\n        /* \"#utility.yul\":7975:8244   */\n    tag_117:\n        /* \"#utility.yul\":8085:8124   */\n      tag_217\n        /* \"#utility.yul\":8116:8123   */\n      dup4\n        /* \"#utility.yul\":8085:8124   */\n      tag_115\n      jump\t// in\n    tag_217:\n        /* \"#utility.yul\":8146:8237   */\n      tag_218\n        /* \"#utility.yul\":8195:8236   */\n      tag_219\n        /* \"#utility.yul\":8219:8235   */\n      dup3\n        /* \"#utility.yul\":8195:8236   */\n      tag_116\n      jump\t// in\n    tag_219:\n        /* \"#utility.yul\":8187:8193   */\n      dup5\n        /* \"#utility.yul\":8180:8184   */\n      dup5\n        /* \"#utility.yul\":8174:8185   */\n      sload\n        /* \"#utility.yul\":8146:8237   */\n      tag_113\n      jump\t// in\n    tag_218:\n        /* \"#utility.yul\":8140:8144   */\n      dup3\n        /* \"#utility.yul\":8133:8238   */\n      sstore\n        /* \"#utility.yul\":8051:8244   */\n      pop\n        /* \"#utility.yul\":7975:8244   */\n      pop\n      pop\n      pop\n      jump\t// out\n        /* \"#utility.yul\":8250:8323   */\n    tag_118:\n        /* \"#utility.yul\":8295:8298   */\n      0x00\n        /* \"#utility.yul\":8250:8323   */\n      swap1\n      jump\t// out\n        /* \"#utility.yul\":8329:8518   */\n    tag_119:\n        /* \"#utility.yul\":8406:8438   */\n      tag_222\n      tag_118\n      jump\t// in\n    tag_222:\n        /* \"#utility.yul\":8447:8512   */\n      tag_223\n        /* \"#utility.yul\":8505:8511   */\n      dup2\n        /* \"#utility.yul\":8497:8503   */\n      dup5\n        /* \"#utility.yul\":8491:8495   */\n      dup5\n        /* \"#utility.yul\":8447:8512   */\n      tag_117\n      jump\t// in\n    tag_223:\n        /* \"#utility.yul\":8382:8518   */\n      pop\n        /* \"#utility.yul\":8329:8518   */\n      pop\n      pop\n      jump\t// out\n        /* \"#utility.yul\":8524:8710   */\n    tag_120:\n        /* \"#utility.yul\":8584:8704   */\n    tag_225:\n        /* \"#utility.yul\":8601:8604   */\n      dup2\n        /* \"#utility.yul\":8594:8599   */\n      dup2\n        /* \"#utility.yul\":8591:8605   */\n      lt\n        /* \"#utility.yul\":8584:8704   */\n      iszero\n      tag_227\n      jumpi\n        /* \"#utility.yul\":8655:8694   */\n      tag_228\n        /* \"#utility.yul\":8692:8693   */\n      0x00\n        /* \"#utility.yul\":8685:8690   */\n      dup3\n        /* \"#utility.yul\":8655:8694   */\n      tag_119\n      jump\t// in\n    tag_228:\n        /* \"#utility.yul\":8628:8629   */\n      0x01\n        /* \"#utility.yul\":8621:8626   */\n      dup2\n        /* \"#utility.yul\":8617:8630   */\n      add\n        /* \"#utility.yul\":8608:8630   */\n      swap1\n      pop\n        /* \"#utility.yul\":8584:8704   */\n      jump(tag_225)\n    tag_227:\n        /* \"#utility.yul\":8524:8710   */\n      pop\n      pop\n      jump\t// out\n        /* \"#utility.yul\":8716:9259   */\n    tag_121:\n        /* \"#utility.yul\":8817:8819   */\n      0x1f\n        /* \"#utility.yul\":8812:8815   */\n      dup3\n        /* \"#utility.yul\":8809:8820   */\n      gt\n        /* \"#utility.yul\":8806:9252   */\n      iszero\n      tag_230\n      jumpi\n        /* \"#utility.yul\":8851:8889   */\n      tag_231\n        /* \"#utility.yul\":8883:8888   */\n      dup2\n        /* \"#utility.yul\":8851:8889   */\n      tag_110\n      jump\t// in\n    tag_231:\n        /* \"#utility.yul\":8935:8964   */\n      tag_232\n        /* \"#utility.yul\":8953:8963   */\n      dup5\n        /* \"#utility.yul\":8935:8964   */\n      tag_111\n      jump\t// in\n    tag_232:\n        /* \"#utility.yul\":8925:8933   */\n      dup2\n        /* \"#utility.yul\":8921:8965   */\n      add\n        /* \"#utility.yul\":9118:9120   */\n      0x20\n        /* \"#utility.yul\":9106:9116   */\n      dup6\n        /* \"#utility.yul\":9103:9121   */\n      lt\n        /* \"#utility.yul\":9100:9149   */\n      iszero\n      tag_233\n      jumpi\n        /* \"#utility.yul\":9139:9147   */\n      dup2\n        /* \"#utility.yul\":9124:9147   */\n      swap1\n      pop\n        /* \"#utility.yul\":9100:9149   */\n    tag_233:\n        /* \"#utility.yul\":9162:9242   */\n      tag_234\n        /* \"#utility.yul\":9218:9240   */\n      tag_235\n        /* \"#utility.yul\":9236:9239   */\n      dup6\n        /* \"#utility.yul\":9218:9240   */\n      tag_111\n      jump\t// in\n    tag_235:\n        /* \"#utility.yul\":9208:9216   */\n      dup4\n        /* \"#utility.yul\":9204:9241   */\n      add\n        /* \"#utility.yul\":9191:9202   */\n      dup3\n        /* \"#utility.yul\":9162:9242   */\n      tag_120\n      jump\t// in\n    tag_234:\n        /* \"#utility.yul\":8821:9252   */\n      pop\n      pop\n        /* \"#utility.yul\":8806:9252   */\n    tag_230:\n        /* \"#utility.yul\":8716:9259   */\n      pop\n      pop\n      pop\n      jump\t// out\n        /* \"#utility.yul\":9265:9382   */\n    tag_122:\n        /* \"#utility.yul\":9319:9327   */\n      0x00\n        /* \"#utility.yul\":9369:9374   */\n      dup3\n        /* \"#utility.yul\":9363:9367   */\n      dup3\n        /* \"#utility.yul\":9359:9375   */\n      shr\n        /* \"#utility.yul\":9338:9375   */\n      swap1\n      pop\n        /* \"#utility.yul\":9265:9382   */\n      swap3\n      swap2\n      pop\n      pop\n      jump\t// out\n        /* \"#utility.yul\":9388:9557   */\n    tag_123:\n        /* \"#utility.yul\":9432:9438   */\n      0x00\n        /* \"#utility.yul\":9465:9516   */\n      tag_238\n        /* \"#utility.yul\":9513:9514   */\n      0x00\n        /* \"#utility.yul\":9509:9515   */\n      not\n        /* \"#utility.yul\":9501:9506   */\n      dup5\n        /* \"#utility.yul\":9498:9499   */\n      0x08\n        /* \"#utility.yul\":9494:9507   */\n      mul\n        /* \"#utility.yul\":9465:9516   */\n      tag_122\n      jump\t// in\n    tag_238:\n        /* \"#utility.yul\":9461:9517   */\n      not\n        /* \"#utility.yul\":9546:9550   */\n      dup1\n        /* \"#utility.yul\":9540:9544   */\n      dup4\n        /* \"#utility.yul\":9536:9551   */\n      and\n        /* \"#utility.yul\":9526:9551   */\n      swap2\n      pop\n        /* \"#utility.yul\":9439:9557   */\n      pop\n        /* \"#utility.yul\":9388:9557   */\n      swap3\n      swap2\n      pop\n      pop\n      jump\t// out\n        /* \"#utility.yul\":9562:9857   */\n    tag_124:\n        /* \"#utility.yul\":9638:9642   */\n      0x00\n        /* \"#utility.yul\":9784:9813   */\n      tag_240\n        /* \"#utility.yul\":9809:9812   */\n      dup4\n        /* \"#utility.yul\":9803:9807   */\n      dup4\n        /* \"#utility.yul\":9784:9813   */\n      tag_123\n      jump\t// in\n    tag_240:\n        /* \"#utility.yul\":9776:9813   */\n      swap2\n      pop\n        /* \"#utility.yul\":9846:9849   */\n      dup3\n        /* \"#utility.yul\":9843:9844   */\n      0x02\n        /* \"#utility.yul\":9839:9850   */\n      mul\n        /* \"#utility.yul\":9833:9837   */\n      dup3\n        /* \"#utility.yul\":9830:9851   */\n      or\n        /* \"#utility.yul\":9822:9851   */\n      swap1\n      pop\n        /* \"#utility.yul\":9562:9857   */\n      swap3\n      swap2\n      pop\n      pop\n      jump\t// out\n        /* \"#utility.yul\":9862:11257   */\n    tag_32:\n        /* \"#utility.yul\":9979:10016   */\n      tag_242\n        /* \"#utility.yul\":10012:10015   */\n      dup3\n        /* \"#utility.yul\":9979:10016   */\n      tag_105\n      jump\t// in\n    tag_242:\n        /* \"#utility.yul\":10081:10099   */\n      0xffffffffffffffff\n        /* \"#utility.yul\":10073:10079   */\n      dup2\n        /* \"#utility.yul\":10070:10100   */\n      gt\n        /* \"#utility.yul\":10067:10123   */\n      iszero\n      tag_243\n      jumpi\n        /* \"#utility.yul\":10103:10121   */\n      tag_244\n      tag_94\n      jump\t// in\n    tag_244:\n        /* \"#utility.yul\":10067:10123   */\n    tag_243:\n        /* \"#utility.yul\":10147:10185   */\n      tag_245\n        /* \"#utility.yul\":10179:10183   */\n      dup3\n        /* \"#utility.yul\":10173:10184   */\n      sload\n        /* \"#utility.yul\":10147:10185   */\n      tag_56\n      jump\t// in\n    tag_245:\n        /* \"#utility.yul\":10232:10299   */\n      tag_246\n        /* \"#utility.yul\":10292:10298   */\n      dup3\n        /* \"#utility.yul\":10284:10290   */\n      dup3\n        /* \"#utility.yul\":10278:10282   */\n      dup6\n        /* \"#utility.yul\":10232:10299   */\n      tag_121\n      jump\t// in\n    tag_246:\n        /* \"#utility.yul\":10326:10327   */\n      0x00\n        /* \"#utility.yul\":10350:10354   */\n      0x20\n        /* \"#utility.yul\":10337:10354   */\n      swap1\n      pop\n        /* \"#utility.yul\":10382:10384   */\n      0x1f\n        /* \"#utility.yul\":10374:10380   */\n      dup4\n        /* \"#utility.yul\":10371:10385   */\n      gt\n        /* \"#utility.yul\":10399:10400   */\n      0x01\n        /* \"#utility.yul\":10394:11012   */\n      dup2\n      eq\n      tag_248\n      jumpi\n        /* \"#utility.yul\":11056:11057   */\n      0x00\n        /* \"#utility.yul\":11073:11079   */\n      dup5\n        /* \"#utility.yul\":11070:11147   */\n      iszero\n      tag_249\n      jumpi\n        /* \"#utility.yul\":11122:11131   */\n      dup3\n        /* \"#utility.yul\":11117:11120   */\n      dup8\n        /* \"#utility.yul\":11113:11132   */\n      add\n        /* \"#utility.yul\":11107:11133   */\n      mload\n        /* \"#utility.yul\":11098:11133   */\n      swap1\n      pop\n        /* \"#utility.yul\":11070:11147   */\n    tag_249:\n        /* \"#utility.yul\":11173:11240   */\n      tag_250\n        /* \"#utility.yul\":11233:11239   */\n      dup6\n        /* \"#utility.yul\":11226:11231   */\n      dup3\n        /* \"#utility.yul\":11173:11240   */\n      tag_124\n      jump\t// in\n    tag_250:\n        /* \"#utility.yul\":11167:11171   */\n      dup7\n        /* \"#utility.yul\":11160:11241   */\n      sstore\n        /* \"#utility.yul\":11029:11251   */\n      pop\n        /* \"#utility.yul\":10364:11251   */\n      jump(tag_247)\n        /* \"#utility.yul\":10394:11012   */\n    tag_248:\n        /* \"#utility.yul\":10446:10450   */\n      0x1f\n        /* \"#utility.yul\":10442:10451   */\n      not\n        /* \"#utility.yul\":10434:10440   */\n      dup5\n        /* \"#utility.yul\":10430:10452   */\n      and\n        /* \"#utility.yul\":10480:10517   */\n      tag_251\n        /* \"#utility.yul\":10512:10516   */\n      dup7\n        /* \"#utility.yul\":10480:10517   */\n      tag_110\n      jump\t// in\n    tag_251:\n        /* \"#utility.yul\":10539:10540   */\n      0x00\n        /* \"#utility.yul\":10553:10761   */\n    tag_252:\n        /* \"#utility.yul\":10567:10574   */\n      dup3\n        /* \"#utility.yul\":10564:10565   */\n      dup2\n        /* \"#utility.yul\":10561:10575   */\n      lt\n        /* \"#utility.yul\":10553:10761   */\n      iszero\n      tag_254\n      jumpi\n        /* \"#utility.yul\":10646:10655   */\n      dup5\n        /* \"#utility.yul\":10641:10644   */\n      dup10\n        /* \"#utility.yul\":10637:10656   */\n      add\n        /* \"#utility.yul\":10631:10657   */\n      mload\n        /* \"#utility.yul\":10623:10629   */\n      dup3\n        /* \"#utility.yul\":10616:10658   */\n      sstore\n        /* \"#utility.yul\":10697:10698   */\n      0x01\n        /* \"#utility.yul\":10689:10695   */\n      dup3\n        /* \"#utility.yul\":10685:10699   */\n      add\n        /* \"#utility.yul\":10675:10699   */\n      swap2\n      pop\n        /* \"#utility.yul\":10744:10746   */\n      0x20\n        /* \"#utility.yul\":10733:10742   */\n      dup6\n        /* \"#utility.yul\":10729:10747   */\n      add\n        /* \"#utility.yul\":10716:10747   */\n      swap5\n      pop\n        /* \"#utility.yul\":10590:10594   */\n      0x20\n        /* \"#utility.yul\":10587:10588   */\n      dup2\n        /* \"#utility.yul\":10583:10595   */\n      add\n        /* \"#utility.yul\":10578:10595   */\n      swap1\n      pop\n        /* \"#utility.yul\":10553:10761   */\n      jump(tag_252)\n    tag_254:\n        /* \"#utility.yul\":10789:10795   */\n      dup7\n        /* \"#utility.yul\":10780:10787   */\n      dup4\n        /* \"#utility.yul\":10777:10796   */\n      lt\n        /* \"#utility.yul\":10774:10953   */\n      iszero\n      tag_255\n      jumpi\n        /* \"#utility.yul\":10847:10856   */\n      dup5\n        /* \"#utility.yul\":10842:10845   */\n      dup10\n        /* \"#utility.yul\":10838:10857   */\n      add\n        /* \"#utility.yul\":10832:10858   */\n      mload\n        /* \"#utility.yul\":10890:10938   */\n      tag_256\n        /* \"#utility.yul\":10932:10936   */\n      0x1f\n        /* \"#utility.yul\":10924:10930   */\n      dup10\n        /* \"#utility.yul\":10920:10937   */\n      and\n        /* \"#utility.yul\":10909:10918   */\n      dup3\n        /* \"#utility.yul\":10890:10938   */\n      tag_123\n      jump\t// in\n    tag_256:\n        /* \"#utility.yul\":10882:10888   */\n      dup4\n        /* \"#utility.yul\":10875:10939   */\n      sstore\n        /* \"#utility.yul\":10797:10953   */\n      pop\n        /* \"#utility.yul\":10774:10953   */\n    tag_255:\n        /* \"#utility.yul\":10999:11000   */\n      0x01\n        /* \"#utility.yul\":10995:10996   */\n      0x02\n        /* \"#utility.yul\":10987:10993   */\n      dup9\n        /* \"#utility.yul\":10983:10997   */\n      mul\n        /* \"#utility.yul\":10979:11001   */\n      add\n        /* \"#utility.yul\":10973:10977   */\n      dup9\n        /* \"#utility.yul\":10966:11002   */\n      sstore\n        /* \"#utility.yul\":10401:11012   */\n      pop\n      pop\n      pop\n        /* \"#utility.yul\":10364:11251   */\n    tag_247:\n      pop\n        /* \"#utility.yul\":9954:11257   */\n      pop\n      pop\n      pop\n        /* \"#utility.yul\":9862:11257   */\n      pop\n      pop\n      jump\t// out\n        /* \"#utility.yul\":11263:11443   */\n    tag_125:\n        /* \"#utility.yul\":11311:11388   */\n      0x4e487b7100000000000000000000000000000000000000000000000000000000\n        /* \"#utility.yul\":11308:11309   */\n      0x00\n        /* \"#utility.yul\":11301:11389   */\n      mstore\n        /* \"#utility.yul\":11408:11412   */\n      0x11\n        /* \"#utility.yul\":11405:11406   */\n      0x04\n        /* \"#utility.yul\":11398:11413   */\n      mstore\n        /* \"#utility.yul\":11432:11436   */\n      0x24\n        /* \"#utility.yul\":11429:11430   */\n      0x00\n        /* \"#utility.yul\":11422:11437   */\n      revert\n        /* \"#utility.yul\":11449:11682   */\n    tag_34:\n        /* \"#utility.yul\":11488:11491   */\n      0x00\n        /* \"#utility.yul\":11511:11535   */\n      tag_259\n        /* \"#utility.yul\":11529:11534   */\n      dup3\n        /* \"#utility.yul\":11511:11535   */\n      tag_101\n      jump\t// in\n    tag_259:\n        /* \"#utility.yul\":11502:11535   */\n      swap2\n      pop\n        /* \"#utility.yul\":11557:11623   */\n      0xffffffffffffffffffffffffffffffffffffffffffffffffffffffffffffffff\n        /* \"#utility.yul\":11550:11555   */\n      dup3\n        /* \"#utility.yul\":11547:11624   */\n      sub\n        /* \"#utility.yul\":11544:11647   */\n      tag_260\n      jumpi\n        /* \"#utility.yul\":11627:11645   */\n      tag_261\n      tag_125\n      jump\t// in\n    tag_261:\n        /* \"#utility.yul\":11544:11647   */\n    tag_260:\n        /* \"#utility.yul\":11674:11675   */\n      0x01\n        /* \"#utility.yul\":11667:11672   */\n      dup3\n        /* \"#utility.yul\":11663:11676   */\n      add\n        /* \"#utility.yul\":11656:11676   */\n      swap1\n      pop\n        /* \"#utility.yul\":11449:11682   */\n      swap2\n      swap1\n      pop\n      jump\t// out\n        /* \"#utility.yul\":11688:11868   */\n    tag_40:\n        /* \"#utility.yul\":11736:11813   */\n      0x4e487b7100000000000000000000000000000000000000000000000000000000\n        /* \"#utility.yul\":11733:11734   */\n      0x00\n        /* \"#utility.yul\":11726:11814   */\n      mstore\n        /* \"#utility.yul\":11833:11837   */\n      0x32\n        /* \"#utility.yul\":11830:11831   */\n      0x04\n        /* \"#utility.yul\":11823:11838   */\n      mstore\n        /* \"#utility.yul\":11857:11861   */\n      0x24\n        /* \"#utility.yul\":11854:11855   */\n      0x00\n        /* \"#utility.yul\":11847:11862   */\n      revert\n        /* \"#utility.yul\":11874:12038   */\n    tag_126:\n        /* \"#utility.yul\":12014:12030   */\n      0x75736572206e6f7420666f756e64000000000000000000000000000000000000\n        /* \"#utility.yul\":12010:12011   */\n      0x00\n        /* \"#utility.yul\":12002:12008   */\n      dup3\n        /* \"#utility.yul\":11998:12012   */\n      add\n        /* \"#utility.yul\":11991:12031   */\n      mstore\n        /* \"#utility.yul\":11874:12038   */\n      pop\n      jump\t// out\n        /* \"#utility.yul\":12044:12410   */\n    tag_127:\n        /* \"#utility.yul\":12186:12189   */\n      0x00\n        /* \"#utility.yul\":12207:12274   */\n      tag_265\n        /* \"#utility.yul\":12271:12273   */\n      0x0e\n        /* \"#utility.yul\":12266:12269   */\n      dup4\n        /* \"#utility.yul\":12207:12274   */\n      tag_106\n      jump\t// in\n    tag_265:\n        /* \"#utility.yul\":12200:12274   */\n      swap2\n      pop\n        /* \"#utility.yul\":12283:12376   */\n      tag_266\n        /* \"#utility.yul\":12372:12375   */\n      dup3\n        /* \"#utility.yul\":12283:12376   */\n      tag_126\n      jump\t// in\n    tag_266:\n        /* \"#utility.yul\":12401:12403   */\n      0x20\n        /* \"#utility.yul\":12396:12399   */\n      dup3\n        /* \"#utility.yul\":12392:12404   */\n      add\n        /* \"#utility.yul\":12385:12404   */\n      swap1\n      pop\n        /* \"#utility.yul\":12044:12410   */\n      swap2\n      swap1\n      pop\n      jump\t// out\n        /* \"#utility.yul\":12416:12835   */\n    tag_80:\n        /* \"#utility.yul\":12582:12586   */\n      0x00\n        /* \"#utility.yul\":12620:12622   */\n      0x20\n        /* \"#utility.yul\":12609:12618   */\n      dup3\n        /* \"#utility.yul\":12605:12623   */\n      add\n        /* \"#utility.yul\":12597:12623   */\n      swap1\n      pop\n        /* \"#utility.yul\":12669:12678   */\n      dup2\n        /* \"#utility.yul\":12663:12667   */\n      dup2\n        /* \"#utility.yul\":12659:12679   */\n      sub\n        /* \"#utility.yul\":12655:12656   */\n      0x00\n        /* \"#utility.yul\":12644:12653   */\n      dup4\n        /* \"#utility.yul\":12640:12657   */\n      add\n        /* \"#utility.yul\":12633:12680   */\n      mstore\n        /* \"#utility.yul\":12697:12828   */\n      tag_268\n        /* \"#utility.yul\":12823:12827   */\n      dup2\n        /* \"#utility.yul\":12697:12828   */\n      tag_127\n      jump\t// in\n    tag_268:\n        /* \"#utility.yul\":12689:12828   */\n      swap1\n      pop\n        /* \"#utility.yul\":12416:12835   */\n      swap2\n      swap1\n      pop\n      jump\t// out\n\n    auxdata: 0xa2646970667358221220027e8833747b7b4df8e3bc3769903cbf43a6ff26f4cc86b0c15dc4b93508664464736f6c634300081a0033\n}\n",
				"bytecode": {
					"linkReferences": {},
					"object": "6080604052600180553480156012575f80fd5b50610b7d806100205f395ff3fe608060405234801561000f575f80fd5b5060043610610055575f3560e01c8063121ef2431461005957806338f1484514610075578063b0467deb14610091578063b5cb15f7146100c3578063b7787de9146100e1575b5f80fd5b610073600480360381019061006e91906105c0565b6100fd565b005b61008f600480360381019061008a919061061a565b610186565b005b6100ab60048036038101906100a6919061061a565b6101d4565b6040516100ba939291906106b4565b60405180910390f35b6100cb6102e3565b6040516100d891906106f0565b60405180910390f35b6100fb60048036038101906100f69190610709565b6102ee565b005b5f6040518060600160405280600154815260200184815260200183815250908060018154018082558091505060019003905f5260205f2090600302015f909190919091505f820151815f0155602082015181600101908161015e919061096f565b5060408201518160020155505060015f81548092919061017d90610a6b565b91905055505050565b5f61019082610357565b90505f81815481106101a5576101a4610ab2565b5b905f5260205f2090600302015f8082015f9055600182015f6101c791906103e8565b600282015f905550505050565b5f60605f806101e285610357565b90505f81815481106101f7576101f6610ab2565b5b905f5260205f2090600302015f01545f828154811061021957610218610ab2565b5b905f5260205f2090600302016001015f838154811061023b5761023a610ab2565b5b905f5260205f20906003020160020154818054610257906107a2565b80601f0160208091040260200160405190810160405280929190818152602001828054610283906107a2565b80156102ce5780601f106102a5576101008083540402835291602001916102ce565b820191905f5260205f20905b8154815290600101906020018083116102b157829003601f168201915b50505050509150935093509350509193909250565b5f8080549050905090565b5f6102f884610357565b9050825f828154811061030e5761030d610ab2565b5b905f5260205f2090600302016001019081610329919061096f565b50815f828154811061033e5761033d610ab2565b5b905f5260205f2090600302016002018190555050505050565b5f805f90505b5f805490508110156103a757825f828154811061037d5761037c610ab2565b5b905f5260205f2090600302015f01540361039a57809150506103e3565b808060010191505061035d565b506040517f08c379a00000000000000000000000000000000000000000000000000000000081526004016103da90610b29565b60405180910390fd5b919050565b5080546103f4906107a2565b5f825580601f106104055750610422565b601f0160209004905f5260205f20908101906104219190610425565b5b50565b5b8082111561043c575f815f905550600101610426565b5090565b5f604051905090565b5f80fd5b5f80fd5b5f80fd5b5f80fd5b5f601f19601f8301169050919050565b7f4e487b71000000000000000000000000000000000000000000000000000000005f52604160045260245ffd5b61049f82610459565b810181811067ffffffffffffffff821117156104be576104bd610469565b5b80604052505050565b5f6104d0610440565b90506104dc8282610496565b919050565b5f67ffffffffffffffff8211156104fb576104fa610469565b5b61050482610459565b9050602081019050919050565b828183375f83830152505050565b5f61053161052c846104e1565b6104c7565b90508281526020810184848401111561054d5761054c610455565b5b610558848285610511565b509392505050565b5f82601f83011261057457610573610451565b5b813561058484826020860161051f565b91505092915050565b5f819050919050565b61059f8161058d565b81146105a9575f80fd5b50565b5f813590506105ba81610596565b92915050565b5f80604083850312156105d6576105d5610449565b5b5f83013567ffffffffffffffff8111156105f3576105f261044d565b5b6105ff85828601610560565b9250506020610610858286016105ac565b9150509250929050565b5f6020828403121561062f5761062e610449565b5b5f61063c848285016105ac565b91505092915050565b61064e8161058d565b82525050565b5f81519050919050565b5f82825260208201905092915050565b8281835e5f83830152505050565b5f61068682610654565b610690818561065e565b93506106a081856020860161066e565b6106a981610459565b840191505092915050565b5f6060820190506106c75f830186610645565b81810360208301526106d9818561067c565b90506106e86040830184610645565b949350505050565b5f6020820190506107035f830184610645565b92915050565b5f805f606084860312156107205761071f610449565b5b5f61072d868287016105ac565b935050602084013567ffffffffffffffff81111561074e5761074d61044d565b5b61075a86828701610560565b925050604061076b868287016105ac565b9150509250925092565b7f4e487b71000000000000000000000000000000000000000000000000000000005f52602260045260245ffd5b5f60028204905060018216806107b957607f821691505b6020821081036107cc576107cb610775565b5b50919050565b5f819050815f5260205f209050919050565b5f6020601f8301049050919050565b5f82821b905092915050565b5f6008830261082e7fffffffffffffffffffffffffffffffffffffffffffffffffffffffffffffffff826107f3565b61083886836107f3565b95508019841693508086168417925050509392505050565b5f819050919050565b5f61087361086e6108698461058d565b610850565b61058d565b9050919050565b5f819050919050565b61088c83610859565b6108a06108988261087a565b8484546107ff565b825550505050565b5f90565b6108b46108a8565b6108bf818484610883565b505050565b5b818110156108e2576108d75f826108ac565b6001810190506108c5565b5050565b601f821115610927576108f8816107d2565b610901846107e4565b81016020851015610910578190505b61092461091c856107e4565b8301826108c4565b50505b505050565b5f82821c905092915050565b5f6109475f198460080261092c565b1980831691505092915050565b5f61095f8383610938565b9150826002028217905092915050565b61097882610654565b67ffffffffffffffff81111561099157610990610469565b5b61099b82546107a2565b6109a68282856108e6565b5f60209050601f8311600181146109d7575f84156109c5578287015190505b6109cf8582610954565b865550610a36565b601f1984166109e5866107d2565b5f5b82811015610a0c578489015182556001820191506020850194506020810190506109e7565b86831015610a295784890151610a25601f891682610938565b8355505b6001600288020188555050505b505050505050565b7f4e487b71000000000000000000000000000000000000000000000000000000005f52601160045260245ffd5b5f610a758261058d565b91507fffffffffffffffffffffffffffffffffffffffffffffffffffffffffffffffff8203610aa757610aa6610a3e565b5b600182019050919050565b7f4e487b71000000000000000000000000000000000000000000000000000000005f52603260045260245ffd5b7f75736572206e6f7420666f756e640000000000000000000000000000000000005f82015250565b5f610b13600e8361065e565b9150610b1e82610adf565b602082019050919050565b5f6020820190508181035f830152610b4081610b07565b905091905056fea2646970667358221220027e8833747b7b4df8e3bc3769903cbf43a6ff26f4cc86b0c15dc4b93508664464736f6c634300081a0033",
					"opcodes": "PUSH1 0x80 PUSH1 0x40 MSTORE PUSH1 0x1 DUP1 SSTORE CALLVALUE DUP1 ISZERO PUSH1 0x12 JUMPI PUSH0 DUP1 REVERT JUMPDEST POP PUSH2 0xB7D DUP1 PUSH2 0x20 PUSH0 CODECOPY PUSH0 RETURN INVALID PUSH1 0x80 PUSH1 0x40 MSTORE CALLVALUE DUP1 ISZERO PUSH2 0xF JUMPI PUSH0 DUP1 REVERT JUMPDEST POP PUSH1 0x4 CALLDATASIZE LT PUSH2 0x55 JUMPI PUSH0 CALLDATALOAD PUSH1 0xE0 SHR DUP1 PUSH4 0x121EF243 EQ PUSH2 0x59 JUMPI DUP1 PUSH4 0x38F14845 EQ PUSH2 0x75 JUMPI DUP1 PUSH4 0xB0467DEB EQ PUSH2 0x91 JUMPI DUP1 PUSH4 0xB5CB15F7 EQ PUSH2 0xC3 JUMPI DUP1 PUSH4 0xB7787DE9 EQ PUSH2 0xE1 JUMPI JUMPDEST PUSH0 DUP1 REVERT JUMPDEST PUSH2 0x73 PUSH1 0x4 DUP1 CALLDATASIZE SUB DUP2 ADD SWAP1 PUSH2 0x6E SWAP2 SWAP1 PUSH2 0x5C0 JUMP JUMPDEST PUSH2 0xFD JUMP JUMPDEST STOP JUMPDEST PUSH2 0x8F PUSH1 0x4 DUP1 CALLDATASIZE SUB DUP2 ADD SWAP1 PUSH2 0x8A SWAP2 SWAP1 PUSH2 0x61A JUMP JUMPDEST PUSH2 0x186 JUMP JUMPDEST STOP JUMPDEST PUSH2 0xAB PUSH1 0x4 DUP1 CALLDATASIZE SUB DUP2 ADD SWAP1 PUSH2 0xA6 SWAP2 SWAP1 PUSH2 0x61A JUMP JUMPDEST PUSH2 0x1D4 JUMP JUMPDEST PUSH1 0x40 MLOAD PUSH2 0xBA SWAP4 SWAP3 SWAP2 SWAP1 PUSH2 0x6B4 JUMP JUMPDEST PUSH1 0x40 MLOAD DUP1 SWAP2 SUB SWAP1 RETURN JUMPDEST PUSH2 0xCB PUSH2 0x2E3 JUMP JUMPDEST PUSH1 0x40 MLOAD PUSH2 0xD8 SWAP2 SWAP1 PUSH2 0x6F0 JUMP JUMPDEST PUSH1 0x40 MLOAD DUP1 SWAP2 SUB SWAP1 RETURN JUMPDEST PUSH2 0xFB PUSH1 0x4 DUP1 CALLDATASIZE SUB DUP2 ADD SWAP1 PUSH2 0xF6 SWAP2 SWAP1 PUSH2 0x709 JUMP JUMPDEST PUSH2 0x2EE JUMP JUMPDEST STOP JUMPDEST PUSH0 PUSH1 0x40 MLOAD DUP1 PUSH1 0x60 ADD PUSH1 0x40 MSTORE DUP1 PUSH1 0x1 SLOAD DUP2 MSTORE PUSH1 0x20 ADD DUP5 DUP2 MSTORE PUSH1 0x20 ADD DUP4 DUP2 MSTORE POP SWAP1 DUP1 PUSH1 0x1 DUP2 SLOAD ADD DUP1 DUP3 SSTORE DUP1 SWAP2 POP POP PUSH1 0x1 SWAP1 SUB SWAP1 PUSH0 MSTORE PUSH1 0x20 PUSH0 KECCAK256 SWAP1 PUSH1 0x3 MUL ADD PUSH0 SWAP1 SWAP2 SWAP1 SWAP2 SWAP1 SWAP2 POP PUSH0 DUP3 ADD MLOAD DUP2 PUSH0 ADD SSTORE PUSH1 0x20 DUP3 ADD MLOAD DUP2 PUSH1 0x1 ADD SWAP1 DUP2 PUSH2 0x15E SWAP2 SWAP1 PUSH2 0x96F JUMP JUMPDEST POP PUSH1 0x40 DUP3 ADD MLOAD DUP2 PUSH1 0x2 ADD SSTORE POP POP PUSH1 0x1 PUSH0 DUP2 SLOAD DUP1 SWAP3 SWAP2 SWAP1 PUSH2 0x17D SWAP1 PUSH2 0xA6B JUMP JUMPDEST SWAP2 SWAP1 POP SSTORE POP POP POP JUMP JUMPDEST PUSH0 PUSH2 0x190 DUP3 PUSH2 0x357 JUMP JUMPDEST SWAP1 POP PUSH0 DUP2 DUP2 SLOAD DUP2 LT PUSH2 0x1A5 JUMPI PUSH2 0x1A4 PUSH2 0xAB2 JUMP JUMPDEST JUMPDEST SWAP1 PUSH0 MSTORE PUSH1 0x20 PUSH0 KECCAK256 SWAP1 PUSH1 0x3 MUL ADD PUSH0 DUP1 DUP3 ADD PUSH0 SWAP1 SSTORE PUSH1 0x1 DUP3 ADD PUSH0 PUSH2 0x1C7 SWAP2 SWAP1 PUSH2 0x3E8 JUMP JUMPDEST PUSH1 0x2 DUP3 ADD PUSH0 SWAP1 SSTORE POP POP POP POP JUMP JUMPDEST PUSH0 PUSH1 0x60 PUSH0 DUP1 PUSH2 0x1E2 DUP6 PUSH2 0x357 JUMP JUMPDEST SWAP1 POP PUSH0 DUP2 DUP2 SLOAD DUP2 LT PUSH2 0x1F7 JUMPI PUSH2 0x1F6 PUSH2 0xAB2 JUMP JUMPDEST JUMPDEST SWAP1 PUSH0 MSTORE PUSH1 0x20 PUSH0 KECCAK256 SWAP1 PUSH1 0x3 MUL ADD PUSH0 ADD SLOAD PUSH0 DUP3 DUP2 SLOAD DUP2 LT PUSH2 0x219 JUMPI PUSH2 0x218 PUSH2 0xAB2 JUMP JUMPDEST JUMPDEST SWAP1 PUSH0 MSTORE PUSH1 0x20 PUSH0 KECCAK256 SWAP1 PUSH1 0x3 MUL ADD PUSH1 0x1 ADD PUSH0 DUP4 DUP2 SLOAD DUP2 LT PUSH2 0x23B JUMPI PUSH2 0x23A PUSH2 0xAB2 JUMP JUMPDEST JUMPDEST SWAP1 PUSH0 MSTORE PUSH1 0x20 PUSH0 KECCAK256 SWAP1 PUSH1 0x3 MUL ADD PUSH1 0x2 ADD SLOAD DUP2 DUP1 SLOAD PUSH2 0x257 SWAP1 PUSH2 0x7A2 JUMP JUMPDEST DUP1 PUSH1 0x1F ADD PUSH1 0x20 DUP1 SWAP2 DIV MUL PUSH1 0x20 ADD PUSH1 0x40 MLOAD SWAP1 DUP2 ADD PUSH1 0x40 MSTORE DUP1 SWAP3 SWAP2 SWAP1 DUP2 DUP2 MSTORE PUSH1 0x20 ADD DUP3 DUP1 SLOAD PUSH2 0x283 SWAP1 PUSH2 0x7A2 JUMP JUMPDEST DUP1 ISZERO PUSH2 0x2CE JUMPI DUP1 PUSH1 0x1F LT PUSH2 0x2A5 JUMPI PUSH2 0x100 DUP1 DUP4 SLOAD DIV MUL DUP4 MSTORE SWAP2 PUSH1 0x20 ADD SWAP2 PUSH2 0x2CE JUMP JUMPDEST DUP3 ADD SWAP2 SWAP1 PUSH0 MSTORE PUSH1 0x20 PUSH0 KECCAK256 SWAP1 JUMPDEST DUP2 SLOAD DUP2 MSTORE SWAP1 PUSH1 0x1 ADD SWAP1 PUSH1 0x20 ADD DUP1 DUP4 GT PUSH2 0x2B1 JUMPI DUP3 SWAP1 SUB PUSH1 0x1F AND DUP3 ADD SWAP2 JUMPDEST POP POP POP POP POP SWAP2 POP SWAP4 POP SWAP4 POP SWAP4 POP POP SWAP2 SWAP4 SWAP1 SWAP3 POP JUMP JUMPDEST PUSH0 DUP1 DUP1 SLOAD SWAP1 POP SWAP1 POP SWAP1 JUMP JUMPDEST PUSH0 PUSH2 0x2F8 DUP5 PUSH2 0x357 JUMP JUMPDEST SWAP1 POP DUP3 PUSH0 DUP3 DUP2 SLOAD DUP2 LT PUSH2 0x30E JUMPI PUSH2 0x30D PUSH2 0xAB2 JUMP JUMPDEST JUMPDEST SWAP1 PUSH0 MSTORE PUSH1 0x20 PUSH0 KECCAK256 SWAP1 PUSH1 0x3 MUL ADD PUSH1 0x1 ADD SWAP1 DUP2 PUSH2 0x329 SWAP2 SWAP1 PUSH2 0x96F JUMP JUMPDEST POP DUP2 PUSH0 DUP3 DUP2 SLOAD DUP2 LT PUSH2 0x33E JUMPI PUSH2 0x33D PUSH2 0xAB2 JUMP JUMPDEST JUMPDEST SWAP1 PUSH0 MSTORE PUSH1 0x20 PUSH0 KECCAK256 SWAP1 PUSH1 0x3 MUL ADD PUSH1 0x2 ADD DUP2 SWAP1 SSTORE POP POP POP POP POP JUMP JUMPDEST PUSH0 DUP1 PUSH0 SWAP1 POP JUMPDEST PUSH0 DUP1 SLOAD SWAP1 POP DUP2 LT ISZERO PUSH2 0x3A7 JUMPI DUP3 PUSH0 DUP3 DUP2 SLOAD DUP2 LT PUSH2 0x37D JUMPI PUSH2 0x37C PUSH2 0xAB2 JUMP JUMPDEST JUMPDEST SWAP1 PUSH0 MSTORE PUSH1 0x20 PUSH0 KECCAK256 SWAP1 PUSH1 0x3 MUL ADD PUSH0 ADD SLOAD SUB PUSH2 0x39A JUMPI DUP1 SWAP2 POP POP PUSH2 0x3E3 JUMP JUMPDEST DUP1 DUP1 PUSH1 0x1 ADD SWAP2 POP POP PUSH2 0x35D JUMP JUMPDEST POP PUSH1 0x40 MLOAD PUSH32 0x8C379A000000000000000000000000000000000000000000000000000000000 DUP2 MSTORE PUSH1 0x4 ADD PUSH2 0x3DA SWAP1 PUSH2 0xB29 JUMP JUMPDEST PUSH1 0x40 MLOAD DUP1 SWAP2 SUB SWAP1 REVERT JUMPDEST SWAP2 SWAP1 POP JUMP JUMPDEST POP DUP1 SLOAD PUSH2 0x3F4 SWAP1 PUSH2 0x7A2 JUMP JUMPDEST PUSH0 DUP3 SSTORE DUP1 PUSH1 0x1F LT PUSH2 0x405 JUMPI POP PUSH2 0x422 JUMP JUMPDEST PUSH1 0x1F ADD PUSH1 0x20 SWAP1 DIV SWAP1 PUSH0 MSTORE PUSH1 0x20 PUSH0 KECCAK256 SWAP1 DUP2 ADD SWAP1 PUSH2 0x421 SWAP2 SWAP1 PUSH2 0x425 JUMP JUMPDEST JUMPDEST POP JUMP JUMPDEST JUMPDEST DUP1 DUP3 GT ISZERO PUSH2 0x43C JUMPI PUSH0 DUP2 PUSH0 SWAP1 SSTORE POP PUSH1 0x1 ADD PUSH2 0x426 JUMP JUMPDEST POP SWAP1 JUMP JUMPDEST PUSH0 PUSH1 0x40 MLOAD SWAP1 POP SWAP1 JUMP JUMPDEST PUSH0 DUP1 REVERT JUMPDEST PUSH0 DUP1 REVERT JUMPDEST PUSH0 DUP1 REVERT JUMPDEST PUSH0 DUP1 REVERT JUMPDEST PUSH0 PUSH1 0x1F NOT PUSH1 0x1F DUP4 ADD AND SWAP1 POP SWAP2 SWAP1 POP JUMP JUMPDEST PUSH32 0x4E487B7100000000000000000000000000000000000000000000000000000000 PUSH0 MSTORE PUSH1 0x41 PUSH1 0x4 MSTORE PUSH1 0x24 PUSH0 REVERT JUMPDEST PUSH2 0x49F DUP3 PUSH2 0x459 JUMP JUMPDEST DUP2 ADD DUP2 DUP2 LT PUSH8 0xFFFFFFFFFFFFFFFF DUP3 GT OR ISZERO PUSH2 0x4BE JUMPI PUSH2 0x4BD PUSH2 0x469 JUMP JUMPDEST JUMPDEST DUP1 PUSH1 0x40 MSTORE POP POP POP JUMP JUMPDEST PUSH0 PUSH2 0x4D0 PUSH2 0x440 JUMP JUMPDEST SWAP1 POP PUSH2 0x4DC DUP3 DUP3 PUSH2 0x496 JUMP JUMPDEST SWAP2 SWAP1 POP JUMP JUMPDEST PUSH0 PUSH8 0xFFFFFFFFFFFFFFFF DUP3 GT ISZERO PUSH2 0x4FB JUMPI PUSH2 0x4FA PUSH2 0x469 JUMP JUMPDEST JUMPDEST PUSH2 0x504 DUP3 PUSH2 0x459 JUMP JUMPDEST SWAP1 POP PUSH1 0x20 DUP2 ADD SWAP1 POP SWAP2 SWAP1 POP JUMP JUMPDEST DUP3 DUP2 DUP4 CALLDATACOPY PUSH0 DUP4 DUP4 ADD MSTORE POP POP POP JUMP JUMPDEST PUSH0 PUSH2 0x531 PUSH2 0x52C DUP5 PUSH2 0x4E1 JUMP JUMPDEST PUSH2 0x4C7 JUMP JUMPDEST SWAP1 POP DUP3 DUP2 MSTORE PUSH1 0x20 DUP2 ADD DUP5 DUP5 DUP5 ADD GT ISZERO PUSH2 0x54D JUMPI PUSH2 0x54C PUSH2 0x455 JUMP JUMPDEST JUMPDEST PUSH2 0x558 DUP5 DUP3 DUP6 PUSH2 0x511 JUMP JUMPDEST POP SWAP4 SWAP3 POP POP POP JUMP JUMPDEST PUSH0 DUP3 PUSH1 0x1F DUP4 ADD SLT PUSH2 0x574 JUMPI PUSH2 0x573 PUSH2 0x451 JUMP JUMPDEST JUMPDEST DUP2 CALLDATALOAD PUSH2 0x584 DUP5 DUP3 PUSH1 0x20 DUP7 ADD PUSH2 0x51F JUMP JUMPDEST SWAP2 POP POP SWAP3 SWAP2 POP POP JUMP JUMPDEST PUSH0 DUP2 SWAP1 POP SWAP2 SWAP1 POP JUMP JUMPDEST PUSH2 0x59F DUP2 PUSH2 0x58D JUMP JUMPDEST DUP2 EQ PUSH2 0x5A9 JUMPI PUSH0 DUP1 REVERT JUMPDEST POP JUMP JUMPDEST PUSH0 DUP2 CALLDATALOAD SWAP1 POP PUSH2 0x5BA DUP2 PUSH2 0x596 JUMP JUMPDEST SWAP3 SWAP2 POP POP JUMP JUMPDEST PUSH0 DUP1 PUSH1 0x40 DUP4 DUP6 SUB SLT ISZERO PUSH2 0x5D6 JUMPI PUSH2 0x5D5 PUSH2 0x449 JUMP JUMPDEST JUMPDEST PUSH0 DUP4 ADD CALLDATALOAD PUSH8 0xFFFFFFFFFFFFFFFF DUP2 GT ISZERO PUSH2 0x5F3 JUMPI PUSH2 0x5F2 PUSH2 0x44D JUMP JUMPDEST JUMPDEST PUSH2 0x5FF DUP6 DUP3 DUP7 ADD PUSH2 0x560 JUMP JUMPDEST SWAP3 POP POP PUSH1 0x20 PUSH2 0x610 DUP6 DUP3 DUP7 ADD PUSH2 0x5AC JUMP JUMPDEST SWAP2 POP POP SWAP3 POP SWAP3 SWAP1 POP JUMP JUMPDEST PUSH0 PUSH1 0x20 DUP3 DUP5 SUB SLT ISZERO PUSH2 0x62F JUMPI PUSH2 0x62E PUSH2 0x449 JUMP JUMPDEST JUMPDEST PUSH0 PUSH2 0x63C DUP5 DUP3 DUP6 ADD PUSH2 0x5AC JUMP JUMPDEST SWAP2 POP POP SWAP3 SWAP2 POP POP JUMP JUMPDEST PUSH2 0x64E DUP2 PUSH2 0x58D JUMP JUMPDEST DUP3 MSTORE POP POP JUMP JUMPDEST PUSH0 DUP2 MLOAD SWAP1 POP SWAP2 SWAP1 POP JUMP JUMPDEST PUSH0 DUP3 DUP3 MSTORE PUSH1 0x20 DUP3 ADD SWAP1 POP SWAP3 SWAP2 POP POP JUMP JUMPDEST DUP3 DUP2 DUP4 MCOPY PUSH0 DUP4 DUP4 ADD MSTORE POP POP POP JUMP JUMPDEST PUSH0 PUSH2 0x686 DUP3 PUSH2 0x654 JUMP JUMPDEST PUSH2 0x690 DUP2 DUP6 PUSH2 0x65E JUMP JUMPDEST SWAP4 POP PUSH2 0x6A0 DUP2 DUP6 PUSH1 0x20 DUP7 ADD PUSH2 0x66E JUMP JUMPDEST PUSH2 0x6A9 DUP2 PUSH2 0x459 JUMP JUMPDEST DUP5 ADD SWAP2 POP POP SWAP3 SWAP2 POP POP JUMP JUMPDEST PUSH0 PUSH1 0x60 DUP3 ADD SWAP1 POP PUSH2 0x6C7 PUSH0 DUP4 ADD DUP7 PUSH2 0x645 JUMP JUMPDEST DUP2 DUP2 SUB PUSH1 0x20 DUP4 ADD MSTORE PUSH2 0x6D9 DUP2 DUP6 PUSH2 0x67C JUMP JUMPDEST SWAP1 POP PUSH2 0x6E8 PUSH1 0x40 DUP4 ADD DUP5 PUSH2 0x645 JUMP JUMPDEST SWAP5 SWAP4 POP POP POP POP JUMP JUMPDEST PUSH0 PUSH1 0x20 DUP3 ADD SWAP1 POP PUSH2 0x703 PUSH0 DUP4 ADD DUP5 PUSH2 0x645 JUMP JUMPDEST SWAP3 SWAP2 POP POP JUMP JUMPDEST PUSH0 DUP1 PUSH0 PUSH1 0x60 DUP5 DUP7 SUB SLT ISZERO PUSH2 0x720 JUMPI PUSH2 0x71F PUSH2 0x449 JUMP JUMPDEST JUMPDEST PUSH0 PUSH2 0x72D DUP7 DUP3 DUP8 ADD PUSH2 0x5AC JUMP JUMPDEST SWAP4 POP POP PUSH1 0x20 DUP5 ADD CALLDATALOAD PUSH8 0xFFFFFFFFFFFFFFFF DUP2 GT ISZERO PUSH2 0x74E JUMPI PUSH2 0x74D PUSH2 0x44D JUMP JUMPDEST JUMPDEST PUSH2 0x75A DUP7 DUP3 DUP8 ADD PUSH2 0x560 JUMP JUMPDEST SWAP3 POP POP PUSH1 0x40 PUSH2 0x76B DUP7 DUP3 DUP8 ADD PUSH2 0x5AC JUMP JUMPDEST SWAP2 POP POP SWAP3 POP SWAP3 POP SWAP3 JUMP JUMPDEST PUSH32 0x4E487B7100000000000000000000000000000000000000000000000000000000 PUSH0 MSTORE PUSH1 0x22 PUSH1 0x4 MSTORE PUSH1 0x24 PUSH0 REVERT JUMPDEST PUSH0 PUSH1 0x2 DUP3 DIV SWAP1 POP PUSH1 0x1 DUP3 AND DUP1 PUSH2 0x7B9 JUMPI PUSH1 0x7F DUP3 AND SWAP2 POP JUMPDEST PUSH1 0x20 DUP3 LT DUP2 SUB PUSH2 0x7CC JUMPI PUSH2 0x7CB PUSH2 0x775 JUMP JUMPDEST JUMPDEST POP SWAP2 SWAP1 POP JUMP JUMPDEST PUSH0 DUP2 SWAP1 POP DUP2 PUSH0 MSTORE PUSH1 0x20 PUSH0 KECCAK256 SWAP1 POP SWAP2 SWAP1 POP JUMP JUMPDEST PUSH0 PUSH1 0x20 PUSH1 0x1F DUP4 ADD DIV SWAP1 POP SWAP2 SWAP1 POP JUMP JUMPDEST PUSH0 DUP3 DUP3 SHL SWAP1 POP SWAP3 SWAP2 POP POP JUMP JUMPDEST PUSH0 PUSH1 0x8 DUP4 MUL PUSH2 0x82E PUSH32 0xFFFFFFFFFFFFFFFFFFFFFFFFFFFFFFFFFFFFFFFFFFFFFFFFFFFFFFFFFFFFFFFF DUP3 PUSH2 0x7F3 JUMP JUMPDEST PUSH2 0x838 DUP7 DUP4 PUSH2 0x7F3 JUMP JUMPDEST SWAP6 POP DUP1 NOT DUP5 AND SWAP4 POP DUP1 DUP7 AND DUP5 OR SWAP3 POP POP POP SWAP4 SWAP3 POP POP POP JUMP JUMPDEST PUSH0 DUP2 SWAP1 POP SWAP2 SWAP1 POP JUMP JUMPDEST PUSH0 PUSH2 0x873 PUSH2 0x86E PUSH2 0x869 DUP5 PUSH2 0x58D JUMP JUMPDEST PUSH2 0x850 JUMP JUMPDEST PUSH2 0x58D JUMP JUMPDEST SWAP1 POP SWAP2 SWAP1 POP JUMP JUMPDEST PUSH0 DUP2 SWAP1 POP SWAP2 SWAP1 POP JUMP JUMPDEST PUSH2 0x88C DUP4 PUSH2 0x859 JUMP JUMPDEST PUSH2 0x8A0 PUSH2 0x898 DUP3 PUSH2 0x87A JUMP JUMPDEST DUP5 DUP5 SLOAD PUSH2 0x7FF JUMP JUMPDEST DUP3 SSTORE POP POP POP POP JUMP JUMPDEST PUSH0 SWAP1 JUMP JUMPDEST PUSH2 0x8B4 PUSH2 0x8A8 JUMP JUMPDEST PUSH2 0x8BF DUP2 DUP5 DUP5 PUSH2 0x883 JUMP JUMPDEST POP POP POP JUMP JUMPDEST JUMPDEST DUP2 DUP2 LT ISZERO PUSH2 0x8E2 JUMPI PUSH2 0x8D7 PUSH0 DUP3 PUSH2 0x8AC JUMP JUMPDEST PUSH1 0x1 DUP2 ADD SWAP1 POP PUSH2 0x8C5 JUMP JUMPDEST POP POP JUMP JUMPDEST PUSH1 0x1F DUP3 GT ISZERO PUSH2 0x927 JUMPI PUSH2 0x8F8 DUP2 PUSH2 0x7D2 JUMP JUMPDEST PUSH2 0x901 DUP5 PUSH2 0x7E4 JUMP JUMPDEST DUP2 ADD PUSH1 0x20 DUP6 LT ISZERO PUSH2 0x910 JUMPI DUP2 SWAP1 POP JUMPDEST PUSH2 0x924 PUSH2 0x91C DUP6 PUSH2 0x7E4 JUMP JUMPDEST DUP4 ADD DUP3 PUSH2 0x8C4 JUMP JUMPDEST POP POP JUMPDEST POP POP POP JUMP JUMPDEST PUSH0 DUP3 DUP3 SHR SWAP1 POP SWAP3 SWAP2 POP POP JUMP JUMPDEST PUSH0 PUSH2 0x947 PUSH0 NOT DUP5 PUSH1 0x8 MUL PUSH2 0x92C JUMP JUMPDEST NOT DUP1 DUP4 AND SWAP2 POP POP SWAP3 SWAP2 POP POP JUMP JUMPDEST PUSH0 PUSH2 0x95F DUP4 DUP4 PUSH2 0x938 JUMP JUMPDEST SWAP2 POP DUP3 PUSH1 0x2 MUL DUP3 OR SWAP1 POP SWAP3 SWAP2 POP POP JUMP JUMPDEST PUSH2 0x978 DUP3 PUSH2 0x654 JUMP JUMPDEST PUSH8 0xFFFFFFFFFFFFFFFF DUP2 GT ISZERO PUSH2 0x991 JUMPI PUSH2 0x990 PUSH2 0x469 JUMP JUMPDEST JUMPDEST PUSH2 0x99B DUP3 SLOAD PUSH2 0x7A2 JUMP JUMPDEST PUSH2 0x9A6 DUP3 DUP3 DUP6 PUSH2 0x8E6 JUMP JUMPDEST PUSH0 PUSH1 0x20 SWAP1 POP PUSH1 0x1F DUP4 GT PUSH1 0x1 DUP2 EQ PUSH2 0x9D7 JUMPI PUSH0 DUP5 ISZERO PUSH2 0x9C5 JUMPI DUP3 DUP8 ADD MLOAD SWAP1 POP JUMPDEST PUSH2 0x9CF DUP6 DUP3 PUSH2 0x954 JUMP JUMPDEST DUP7 SSTORE POP PUSH2 0xA36 JUMP JUMPDEST PUSH1 0x1F NOT DUP5 AND PUSH2 0x9E5 DUP7 PUSH2 0x7D2 JUMP JUMPDEST PUSH0 JUMPDEST DUP3 DUP2 LT ISZERO PUSH2 0xA0C JUMPI DUP5 DUP10 ADD MLOAD DUP3 SSTORE PUSH1 0x1 DUP3 ADD SWAP2 POP PUSH1 0x20 DUP6 ADD SWAP5 POP PUSH1 0x20 DUP2 ADD SWAP1 POP PUSH2 0x9E7 JUMP JUMPDEST DUP7 DUP4 LT ISZERO PUSH2 0xA29 JUMPI DUP5 DUP10 ADD MLOAD PUSH2 0xA25 PUSH1 0x1F DUP10 AND DUP3 PUSH2 0x938 JUMP JUMPDEST DUP4 SSTORE POP JUMPDEST PUSH1 0x1 PUSH1 0x2 DUP9 MUL ADD DUP9 SSTORE POP POP POP JUMPDEST POP POP POP POP POP POP JUMP JUMPDEST PUSH32 0x4E487B7100000000000000000000000000000000000000000000000000000000 PUSH0 MSTORE PUSH1 0x11 PUSH1 0x4 MSTORE PUSH1 0x24 PUSH0 REVERT JUMPDEST PUSH0 PUSH2 0xA75 DUP3 PUSH2 0x58D JUMP JUMPDEST SWAP2 POP PUSH32 0xFFFFFFFFFFFFFFFFFFFFFFFFFFFFFFFFFFFFFFFFFFFFFFFFFFFFFFFFFFFFFFFF DUP3 SUB PUSH2 0xAA7 JUMPI PUSH2 0xAA6 PUSH2 0xA3E JUMP JUMPDEST JUMPDEST PUSH1 0x1 DUP3 ADD SWAP1 POP SWAP2 SWAP1 POP JUMP JUMPDEST PUSH32 0x4E487B7100000000000000000000000000000000000000000000000000000000 PUSH0 MSTORE PUSH1 0x32 PUSH1 0x4 MSTORE PUSH1 0x24 PUSH0 REVERT JUMPDEST PUSH32 0x75736572206E6F7420666F756E64000000000000000000000000000000000000 PUSH0 DUP3 ADD MSTORE POP JUMP JUMPDEST PUSH0 PUSH2 0xB13 PUSH1 0xE DUP4 PUSH2 0x65E JUMP JUMPDEST SWAP2 POP PUSH2 0xB1E DUP3 PUSH2 0xADF JUMP JUMPDEST PUSH1 0x20 DUP3 ADD SWAP1 POP SWAP2 SWAP1 POP JUMP JUMPDEST PUSH0 PUSH1 0x20 DUP3 ADD SWAP1 POP DUP2 DUP2 SUB PUSH0 DUP4 ADD MSTORE PUSH2 0xB40 DUP2 PUSH2 0xB07 JUMP JUMPDEST SWAP1 POP SWAP2 SWAP1 POP JUMP INVALID LOG2 PUSH5 0x6970667358 0x22 SLT KECCAK256 MUL PUSH31 0x8833747B7B4DF8E3BC3769903CBF43A6FF26F4CC86B0C15DC4B93508664464 PUSH20 0x6F6C634300081A00330000000000000000000000 "
				},
				"gasEstimates": {
					"creation": {
						"codeDepositCost": "588200",
						"executionCost": "22723",
						"totalCost": "610923"
					},
					"external": {
						"createUser(string,uint256)": "infinite",
						"deleteUser(uint256)": "infinite",
						"getUser(uint256)": "infinite",
						"getUserCount()": "2484",
						"updateUser(uint256,string,uint256)": "infinite"
					},
					"internal": {
						"findUser(uint256)": "infinite"
					}
				},
				"methodIdentifiers": {
					"createUser(string,uint256)": "121ef243",
					"deleteUser(uint256)": "38f14845",
					"getUser(uint256)": "b0467deb",
					"getUserCount()": "b5cb15f7",
					"updateUser(uint256,string,uint256)": "b7787de9"
				}
			},
			"storageLayout": {
				"storage": [
					{
						"astId": 12,
						"contract": "contracts/SmartContract.sol:FavNumberStore",
						"label": "users",
						"offset": 0,
						"slot": "0",
						"type": "t_array(t_struct(User)8_storage)dyn_storage"
					},
					{
						"astId": 15,
						"contract": "contracts/SmartContract.sol:FavNumberStore",
						"label": "nextId",
						"offset": 0,
						"slot": "1",
						"type": "t_uint256"
					}
				],
				"types": {
					"t_array(t_struct(User)8_storage)dyn_storage": {
						"base": "t_struct(User)8_storage",
						"encoding": "dynamic_array",
						"label": "struct FavNumberStore.User[]",
						"numberOfBytes": "32"
					},
					"t_string_storage": {
						"encoding": "bytes",
						"label": "string",
						"numberOfBytes": "32"
					},
					"t_struct(User)8_storage": {
						"encoding": "inplace",
						"label": "struct FavNumberStore.User",
						"members": [
							{
								"astId": 3,
								"contract": "contracts/SmartContract.sol:FavNumberStore",
								"label": "id",
								"offset": 0,
								"slot": "0",
								"type": "t_uint256"
							},
							{
								"astId": 5,
								"contract": "contracts/SmartContract.sol:FavNumberStore",
								"label": "name",
								"offset": 0,
								"slot": "1",
								"type": "t_string_storage"
							},
							{
								"astId": 7,
								"contract": "contracts/SmartContract.sol:FavNumberStore",
								"label": "favNumber",
								"offset": 0,
								"slot": "2",
								"type": "t_uint256"
							}
						],
						"numberOfBytes": "96"
					},
					"t_uint256": {
						"encoding": "inplace",
						"label": "uint256",
						"numberOfBytes": "32"
					}
				}
			},
			"userdoc": {
				"kind": "user",
				"methods": {},
				"version": 1
			}
		}
	}
}